{"contracts/src/TaxeeLotRegistry.sol":{"TaxeeLotRegistry":{"abi":[{"inputs":[],"name":"InvalidHash","type":"error"},{"inputs":[{"internalType":"bytes32","name":"lotId","type":"bytes32"}],"name":"LotAlreadyCommitted","type":"error"},{"inputs":[],"name":"ZeroAgent","type":"error"},{"anonymous":false,"inputs":[{"indexed":true,"internalType":"address","name":"agent","type":"address"},{"indexed":true,"internalType":"bytes32","name":"lotId","type":"bytes32"},{"indexed":true,"internalType":"bytes32","name":"dataHash","type":"bytes32"},{"indexed":false,"internalType":"uint256","name":"timestamp","type":"uint256"}],"name":"LotDisposed","type":"event"},{"inputs":[{"internalType":"bytes32","name":"lotId","type":"bytes32"},{"internalType":"bytes32","name":"dataHash","type":"bytes32"}],"name":"commitDisposal","outputs":[],"stateMutability":"nonpayable","type":"function"},{"inputs":[{"internalType":"bytes32[]","name":"lotIds","type":"bytes32[]"},{"internalType":"bytes32[]","name":"dataHashes","type":"bytes32[]"}],"name":"commitDisposalBatch","outputs":[],"stateMutability":"nonpayable","type":"function"},{"inputs":[{"internalType":"bytes32","name":"lotId","type":"bytes32"}],"name":"getCommitment","outputs":[{"internalType":"bytes32","name":"dataHash","type":"bytes32"},{"internalType":"address","name":"agent","type":"address"},{"internalType":"uint256","name":"blockNumber","type":"uint256"},{"internalType":"bool","name":"exists","type":"bool"}],"stateMutability":"view","type":"function"},{"inputs":[{"internalType":"bytes32","name":"lotId","type":"bytes32"}],"name":"isCommitted","outputs":[{"internalType":"bool","name":"","type":"bool"}],"stateMutability":"view","type":"function"},{"inputs":[{"internalType":"bytes32","name":"","type":"bytes32"}],"name":"lotAgents","outputs":[{"internalType":"address","name":"","type":"address"}],"stateMutability":"view","type":"function"},{"inputs":[{"internalType":"bytes32","name":"","type":"bytes32"}],"name":"lotBlocks","outputs":[{"internalType":"uint256","name":"","type":"uint256"}],"stateMutability":"view","type":"function"},{"inputs":[{"internalType":"bytes32","name":"","type":"bytes32"}],"name":"lotHashes","outputs":[{"internalType":"bytes32","name":"","type":"bytes32"}],"stateMutability":"view","type":"function"},{"inputs":[],"name":"totalDisposals","outputs":[{"internalType":"uint256","name":"","type":"uint256"}],"stateMutability":"view","type":"function"},{"inputs":[{"internalType":"bytes32","name":"lotId","type":"bytes32"},{"internalType":"bytes32","name":"dataHash","type":"bytes32"}],"name":"verifyDisposal","outputs":[{"internalType":"bool","name":"valid","type":"bool"}],"stateMutability":"view","type":"function"}],"evm":{"bytecode":{"linkReferences":{},"object":"608060405234801561001057600080fd5b50610642806100206000396000f3fe608060405234801561001057600080fd5b50600436106100935760003560e01c80637795820c116100665780637795820c1461014757806381b65ed5146101b4578063886bd865146101c957806399ffd2f2146101dc578063bd0eecda146101ef57600080fd5b8063054765a3146100985780632850bd24146100cf5780633d87e11614610110578063533b7a3014610127575b600080fd5b6100ba6100a63660046104e2565b600090815260208190526040902054151590565b60405190151581526020015b60405180910390f35b6100f86100dd3660046104e2565b6001602052600090815260409020546001600160a01b031681565b6040516001600160a01b0390911681526020016100c6565b61011960035481565b6040519081526020016100c6565b6101196101353660046104e2565b60006020819052908152604090205481565b61018a6101553660046104e2565b600090815260208181526040808320546001835281842054600290935292205491926001600160a01b03909116919083151590565b604080519485526001600160a01b03909316602085015291830152151560608201526080016100c6565b6101c76101c23660046104fb565b61020f565b005b6100ba6101d73660046104fb565b610308565b6101c76101ea366004610569565b61033b565b6101196101fd3660046104e2565b60026020526000908152604090205481565b6000828152602081905260409020541561024457604051632b7828a560e21b8152600481018390526024015b60405180910390fd5b80610261576040516257c03760e51b815260040160405180910390fd5b3361027f576040516392077bad60e01b815260040160405180910390fd5b600082815260208181526040808320849055600180835281842080546001600160a01b031916331790556002909252822043905560038054919290916102c69084906105d5565b90915550506040514281528190839033907fe3d8e50f31703fe62297a87c8facf7c13bbac1bd9f8687c548408501ce9c0e0a9060200160405180910390a45050565b60008281526020819052604081205415801590610332575060008381526020819052604090205482145b90505b92915050565b82811461037c5760405162461bcd60e51b815260206004820152600f60248201526e098cadccee8d040dad2e6dac2e8c6d608b1b604482015260640161023b565b826103b75760405162461bcd60e51b815260206004820152600b60248201526a08adae0e8f240c4c2e8c6d60ab1b604482015260640161023b565b60005b838110156104c15760008585838181106103d6576103d66105f6565b90506020020135905060008484848181106103f3576103f36105f6565b60008581526020818152604090912054910292909201359250501561042e57604051632b7828a560e21b81526004810183905260240161023b565b8061044b576040516257c03760e51b815260040160405180910390fd5b6000828152602081815260408083208490556001825280832080546001600160a01b031916339081179091556002835292819020439055514281528392859290917fe3d8e50f31703fe62297a87c8facf7c13bbac1bd9f8687c548408501ce9c0e0a910160405180910390a450506001016103ba565b5083839050600360008282546104d791906105d5565b909155505050505050565b6000602082840312156104f457600080fd5b5035919050565b6000806040838503121561050e57600080fd5b50508035926020909101359150565b60008083601f84011261052f57600080fd5b50813567ffffffffffffffff81111561054757600080fd5b6020830191508360208260051b850101111561056257600080fd5b9250929050565b6000806000806040858703121561057f57600080fd5b843567ffffffffffffffff8082111561059757600080fd5b6105a38883890161051d565b909650945060208701359150808211156105bc57600080fd5b506105c98782880161051d565b95989497509550505050565b8082018082111561033557634e487b7160e01b600052601160045260246000fd5b634e487b7160e01b600052603260045260246000fdfea2646970667358221220584d98820cd7dc722cf8675db8e202c5b3d98a14a9de59a45e937c60bcb51ec664736f6c63430008180033","opcodes":"PUSH1 0x80 PUSH1 0x40 MSTORE CALLVALUE DUP1 ISZERO PUSH2 0x10 JUMPI PUSH1 0x0 DUP1 REVERT JUMPDEST POP PUSH2 0x642 DUP1 PUSH2 0x20 PUSH1 0x0 CODECOPY PUSH1 0x0 RETURN INVALID PUSH1 0x80 PUSH1 0x40 MSTORE CALLVALUE DUP1 ISZERO PUSH2 0x10 JUMPI PUSH1 0x0 DUP1 REVERT JUMPDEST POP PUSH1 0x4 CALLDATASIZE LT PUSH2 0x93 JUMPI PUSH1 0x0 CALLDATALOAD PUSH1 0xE0 SHR DUP1 PUSH4 0x7795820C GT PUSH2 0x66 JUMPI DUP1 PUSH4 0x7795820C EQ PUSH2 0x147 JUMPI DUP1 PUSH4 0x81B65ED5 EQ PUSH2 0x1B4 JUMPI DUP1 PUSH4 0x886BD865 EQ PUSH2 0x1C9 JUMPI DUP1 PUSH4 0x99FFD2F2 EQ PUSH2 0x1DC JUMPI DUP1 PUSH4 0xBD0EECDA EQ PUSH2 0x1EF JUMPI PUSH1 0x0 DUP1 REVERT JUMPDEST DUP1 PUSH4 0x54765A3 EQ PUSH2 0x98 JUMPI DUP1 PUSH4 0x2850BD24 EQ PUSH2 0xCF JUMPI DUP1 PUSH4 0x3D87E116 EQ PUSH2 0x110 JUMPI DUP1 PUSH4 0x533B7A30 EQ PUSH2 0x127 JUMPI JUMPDEST PUSH1 0x0 DUP1 REVERT JUMPDEST PUSH2 0xBA PUSH2 0xA6 CALLDATASIZE PUSH1 0x4 PUSH2 0x4E2 JUMP JUMPDEST PUSH1 0x0 SWAP1 DUP2 MSTORE PUSH1 0x20 DUP2 SWAP1 MSTORE PUSH1 0x40 SWAP1 KECCAK256 SLOAD ISZERO ISZERO SWAP1 JUMP JUMPDEST PUSH1 0x40 MLOAD SWAP1 ISZERO ISZERO DUP2 MSTORE PUSH1 0x20 ADD JUMPDEST PUSH1 0x40 MLOAD DUP1 SWAP2 SUB SWAP1 RETURN JUMPDEST PUSH2 0xF8 PUSH2 0xDD CALLDATASIZE PUSH1 0x4 PUSH2 0x4E2 JUMP JUMPDEST PUSH1 0x1 PUSH1 0x20 MSTORE PUSH1 0x0 SWAP1 DUP2 MSTORE PUSH1 0x40 SWAP1 KECCAK256 SLOAD PUSH1 0x1 PUSH1 0x1 PUSH1 0xA0 SHL SUB AND DUP2 JUMP JUMPDEST PUSH1 0x40 MLOAD PUSH1 0x1 PUSH1 0x1 PUSH1 0xA0 SHL SUB SWAP1 SWAP2 AND DUP2 MSTORE PUSH1 0x20 ADD PUSH2 0xC6 JUMP JUMPDEST PUSH2 0x119 PUSH1 0x3 SLOAD DUP2 JUMP JUMPDEST PUSH1 0x40 MLOAD SWAP1 DUP2 MSTORE PUSH1 0x20 ADD PUSH2 0xC6 JUMP JUMPDEST PUSH2 0x119 PUSH2 0x135 CALLDATASIZE PUSH1 0x4 PUSH2 0x4E2 JUMP JUMPDEST PUSH1 0x0 PUSH1 0x20 DUP2 SWAP1 MSTORE SWAP1 DUP2 MSTORE PUSH1 0x40 SWAP1 KECCAK256 SLOAD DUP2 JUMP JUMPDEST PUSH2 0x18A PUSH2 0x155 CALLDATASIZE PUSH1 0x4 PUSH2 0x4E2 JUMP JUMPDEST PUSH1 0x0 SWAP1 DUP2 MSTORE PUSH1 0x20 DUP2 DUP2 MSTORE PUSH1 0x40 DUP1 DUP4 KECCAK256 SLOAD PUSH1 0x1 DUP4 MSTORE DUP2 DUP5 KECCAK256 SLOAD PUSH1 0x2 SWAP1 SWAP4 MSTORE SWAP3 KECCAK256 SLOAD SWAP2 SWAP3 PUSH1 0x1 PUSH1 0x1 PUSH1 0xA0 SHL SUB SWAP1 SWAP2 AND SWAP2 SWAP1 DUP4 ISZERO ISZERO SWAP1 JUMP JUMPDEST PUSH1 0x40 DUP1 MLOAD SWAP5 DUP6 MSTORE PUSH1 0x1 PUSH1 0x1 PUSH1 0xA0 SHL SUB SWAP1 SWAP4 AND PUSH1 0x20 DUP6 ADD MSTORE SWAP2 DUP4 ADD MSTORE ISZERO ISZERO PUSH1 0x60 DUP3 ADD MSTORE PUSH1 0x80 ADD PUSH2 0xC6 JUMP JUMPDEST PUSH2 0x1C7 PUSH2 0x1C2 CALLDATASIZE PUSH1 0x4 PUSH2 0x4FB JUMP JUMPDEST PUSH2 0x20F JUMP JUMPDEST STOP JUMPDEST PUSH2 0xBA PUSH2 0x1D7 CALLDATASIZE PUSH1 0x4 PUSH2 0x4FB JUMP JUMPDEST PUSH2 0x308 JUMP JUMPDEST PUSH2 0x1C7 PUSH2 0x1EA CALLDATASIZE PUSH1 0x4 PUSH2 0x569 JUMP JUMPDEST PUSH2 0x33B JUMP JUMPDEST PUSH2 0x119 PUSH2 0x1FD CALLDATASIZE PUSH1 0x4 PUSH2 0x4E2 JUMP JUMPDEST PUSH1 0x2 PUSH1 0x20 MSTORE PUSH1 0x0 SWAP1 DUP2 MSTORE PUSH1 0x40 SWAP1 KECCAK256 SLOAD DUP2 JUMP JUMPDEST PUSH1 0x0 DUP3 DUP2 MSTORE PUSH1 0x20 DUP2 SWAP1 MSTORE PUSH1 0x40 SWAP1 KECCAK256 SLOAD ISZERO PUSH2 0x244 JUMPI PUSH1 0x40 MLOAD PUSH4 0x2B7828A5 PUSH1 0xE2 SHL DUP2 MSTORE PUSH1 0x4 DUP2 ADD DUP4 SWAP1 MSTORE PUSH1 0x24 ADD JUMPDEST PUSH1 0x40 MLOAD DUP1 SWAP2 SUB SWAP1 REVERT JUMPDEST DUP1 PUSH2 0x261 JUMPI PUSH1 0x40 MLOAD PUSH3 0x57C037 PUSH1 0xE5 SHL DUP2 MSTORE PUSH1 0x4 ADD PUSH1 0x40 MLOAD DUP1 SWAP2 SUB SWAP1 REVERT JUMPDEST CALLER PUSH2 0x27F JUMPI PUSH1 0x40 MLOAD PUSH4 0x92077BAD PUSH1 0xE0 SHL DUP2 MSTORE PUSH1 0x4 ADD PUSH1 0x40 MLOAD DUP1 SWAP2 SUB SWAP1 REVERT JUMPDEST PUSH1 0x0 DUP3 DUP2 MSTORE PUSH1 0x20 DUP2 DUP2 MSTORE PUSH1 0x40 DUP1 DUP4 KECCAK256 DUP5 SWAP1 SSTORE PUSH1 0x1 DUP1 DUP4 MSTORE DUP2 DUP5 KECCAK256 DUP1 SLOAD PUSH1 0x1 PUSH1 0x1 PUSH1 0xA0 SHL SUB NOT AND CALLER OR SWAP1 SSTORE PUSH1 0x2 SWAP1 SWAP3 MSTORE DUP3 KECCAK256 NUMBER SWAP1 SSTORE PUSH1 0x3 DUP1 SLOAD SWAP2 SWAP3 SWAP1 SWAP2 PUSH2 0x2C6 SWAP1 DUP5 SWAP1 PUSH2 0x5D5 JUMP JUMPDEST SWAP1 SWAP2 SSTORE POP POP PUSH1 0x40 MLOAD TIMESTAMP DUP2 MSTORE DUP2 SWAP1 DUP4 SWAP1 CALLER SWAP1 PUSH32 0xE3D8E50F31703FE62297A87C8FACF7C13BBAC1BD9F8687C548408501CE9C0E0A SWAP1 PUSH1 0x20 ADD PUSH1 0x40 MLOAD DUP1 SWAP2 SUB SWAP1 LOG4 POP POP JUMP JUMPDEST PUSH1 0x0 DUP3 DUP2 MSTORE PUSH1 0x20 DUP2 SWAP1 MSTORE PUSH1 0x40 DUP2 KECCAK256 SLOAD ISZERO DUP1 ISZERO SWAP1 PUSH2 0x332 JUMPI POP PUSH1 0x0 DUP4 DUP2 MSTORE PUSH1 0x20 DUP2 SWAP1 MSTORE PUSH1 0x40 SWAP1 KECCAK256 SLOAD DUP3 EQ JUMPDEST SWAP1 POP JUMPDEST SWAP3 SWAP2 POP POP JUMP JUMPDEST DUP3 DUP2 EQ PUSH2 0x37C JUMPI PUSH1 0x40 MLOAD PUSH3 0x461BCD PUSH1 0xE5 SHL DUP2 MSTORE PUSH1 0x20 PUSH1 0x4 DUP3 ADD MSTORE PUSH1 0xF PUSH1 0x24 DUP3 ADD MSTORE PUSH15 0x98CADCCEE8D040DAD2E6DAC2E8C6D PUSH1 0x8B SHL PUSH1 0x44 DUP3 ADD MSTORE PUSH1 0x64 ADD PUSH2 0x23B JUMP JUMPDEST DUP3 PUSH2 0x3B7 JUMPI PUSH1 0x40 MLOAD PUSH3 0x461BCD PUSH1 0xE5 SHL DUP2 MSTORE PUSH1 0x20 PUSH1 0x4 DUP3 ADD MSTORE PUSH1 0xB PUSH1 0x24 DUP3 ADD MSTORE PUSH11 0x8ADAE0E8F240C4C2E8C6D PUSH1 0xAB SHL PUSH1 0x44 DUP3 ADD MSTORE PUSH1 0x64 ADD PUSH2 0x23B JUMP JUMPDEST PUSH1 0x0 JUMPDEST DUP4 DUP2 LT ISZERO PUSH2 0x4C1 JUMPI PUSH1 0x0 DUP6 DUP6 DUP4 DUP2 DUP2 LT PUSH2 0x3D6 JUMPI PUSH2 0x3D6 PUSH2 0x5F6 JUMP JUMPDEST SWAP1 POP PUSH1 0x20 MUL ADD CALLDATALOAD SWAP1 POP PUSH1 0x0 DUP5 DUP5 DUP5 DUP2 DUP2 LT PUSH2 0x3F3 JUMPI PUSH2 0x3F3 PUSH2 0x5F6 JUMP JUMPDEST PUSH1 0x0 DUP6 DUP2 MSTORE PUSH1 0x20 DUP2 DUP2 MSTORE PUSH1 0x40 SWAP1 SWAP2 KECCAK256 SLOAD SWAP2 MUL SWAP3 SWAP1 SWAP3 ADD CALLDATALOAD SWAP3 POP POP ISZERO PUSH2 0x42E JUMPI PUSH1 0x40 MLOAD PUSH4 0x2B7828A5 PUSH1 0xE2 SHL DUP2 MSTORE PUSH1 0x4 DUP2 ADD DUP4 SWAP1 MSTORE PUSH1 0x24 ADD PUSH2 0x23B JUMP JUMPDEST DUP1 PUSH2 0x44B JUMPI PUSH1 0x40 MLOAD PUSH3 0x57C037 PUSH1 0xE5 SHL DUP2 MSTORE PUSH1 0x4 ADD PUSH1 0x40 MLOAD DUP1 SWAP2 SUB SWAP1 REVERT JUMPDEST PUSH1 0x0 DUP3 DUP2 MSTORE PUSH1 0x20 DUP2 DUP2 MSTORE PUSH1 0x40 DUP1 DUP4 KECCAK256 DUP5 SWAP1 SSTORE PUSH1 0x1 DUP3 MSTORE DUP1 DUP4 KECCAK256 DUP1 SLOAD PUSH1 0x1 PUSH1 0x1 PUSH1 0xA0 SHL SUB NOT AND CALLER SWAP1 DUP2 OR SWAP1 SWAP2 SSTORE PUSH1 0x2 DUP4 MSTORE SWAP3 DUP2 SWAP1 KECCAK256 NUMBER SWAP1 SSTORE MLOAD TIMESTAMP DUP2 MSTORE DUP4 SWAP3 DUP6 SWAP3 SWAP1 SWAP2 PUSH32 0xE3D8E50F31703FE62297A87C8FACF7C13BBAC1BD9F8687C548408501CE9C0E0A SWAP2 ADD PUSH1 0x40 MLOAD DUP1 SWAP2 SUB SWAP1 LOG4 POP POP PUSH1 0x1 ADD PUSH2 0x3BA JUMP JUMPDEST POP DUP4 DUP4 SWAP1 POP PUSH1 0x3 PUSH1 0x0 DUP3 DUP3 SLOAD PUSH2 0x4D7 SWAP2 SWAP1 PUSH2 0x5D5 JUMP JUMPDEST SWAP1 SWAP2 SSTORE POP POP POP POP POP POP JUMP JUMPDEST PUSH1 0x0 PUSH1 0x20 DUP3 DUP5 SUB SLT ISZERO PUSH2 0x4F4 JUMPI PUSH1 0x0 DUP1 REVERT JUMPDEST POP CALLDATALOAD SWAP2 SWAP1 POP JUMP JUMPDEST PUSH1 0x0 DUP1 PUSH1 0x40 DUP4 DUP6 SUB SLT ISZERO PUSH2 0x50E JUMPI PUSH1 0x0 DUP1 REVERT JUMPDEST POP POP DUP1 CALLDATALOAD SWAP3 PUSH1 0x20 SWAP1 SWAP2 ADD CALLDATALOAD SWAP2 POP JUMP JUMPDEST PUSH1 0x0 DUP1 DUP4 PUSH1 0x1F DUP5 ADD SLT PUSH2 0x52F JUMPI PUSH1 0x0 DUP1 REVERT JUMPDEST POP DUP2 CALLDATALOAD PUSH8 0xFFFFFFFFFFFFFFFF DUP2 GT ISZERO PUSH2 0x547 JUMPI PUSH1 0x0 DUP1 REVERT JUMPDEST PUSH1 0x20 DUP4 ADD SWAP2 POP DUP4 PUSH1 0x20 DUP3 PUSH1 0x5 SHL DUP6 ADD ADD GT ISZERO PUSH2 0x562 JUMPI PUSH1 0x0 DUP1 REVERT JUMPDEST SWAP3 POP SWAP3 SWAP1 POP JUMP JUMPDEST PUSH1 0x0 DUP1 PUSH1 0x0 DUP1 PUSH1 0x40 DUP6 DUP8 SUB SLT ISZERO PUSH2 0x57F JUMPI PUSH1 0x0 DUP1 REVERT JUMPDEST DUP5 CALLDATALOAD PUSH8 0xFFFFFFFFFFFFFFFF DUP1 DUP3 GT ISZERO PUSH2 0x597 JUMPI PUSH1 0x0 DUP1 REVERT JUMPDEST PUSH2 0x5A3 DUP9 DUP4 DUP10 ADD PUSH2 0x51D JUMP JUMPDEST SWAP1 SWAP7 POP SWAP5 POP PUSH1 0x20 DUP8 ADD CALLDATALOAD SWAP2 POP DUP1 DUP3 GT ISZERO PUSH2 0x5BC JUMPI PUSH1 0x0 DUP1 REVERT JUMPDEST POP PUSH2 0x5C9 DUP8 DUP3 DUP9 ADD PUSH2 0x51D JUMP JUMPDEST SWAP6 SWAP9 SWAP5 SWAP8 POP SWAP6 POP POP POP POP JUMP JUMPDEST DUP1 DUP3 ADD DUP1 DUP3 GT ISZERO PUSH2 0x335 JUMPI PUSH4 0x4E487B71 PUSH1 0xE0 SHL PUSH1 0x0 MSTORE PUSH1 0x11 PUSH1 0x4 MSTORE PUSH1 0x24 PUSH1 0x0 REVERT JUMPDEST PUSH4 0x4E487B71 PUSH1 0xE0 SHL PUSH1 0x0 MSTORE PUSH1 0x32 PUSH1 0x4 MSTORE PUSH1 0x24 PUSH1 0x0 REVERT INVALID LOG2 PUSH5 0x6970667358 0x22 SLT KECCAK256 PC 0x4D SWAP9 DUP3 0xC 0xD7 0xDC PUSH19 0x2CF8675DB8E202C5B3D98A14A9DE59A45E937C PUSH1 0xBC 0xB5 0x1E 0xC6 PUSH5 0x736F6C6343 STOP ADDMOD XOR STOP CALLER "},"methodIdentifiers":{"commitDisposal(bytes32,bytes32)":"81b65ed5","commitDisposalBatch(bytes32[],bytes32[])":"99ffd2f2","getCommitment(bytes32)":"7795820c","isCommitted(bytes32)":"054765a3","lotAgents(bytes32)":"2850bd24","lotBlocks(bytes32)":"bd0eecda","lotHashes(bytes32)":"533b7a30","totalDisposals()":"3d87e116","verifyDisposal(bytes32,bytes32)":"886bd865"}}}}}