{"contracts/src/DelegationRegistry.sol":{"DelegationRegistry":{"abi":[{"inputs":[],"stateMutability":"nonpayable","type":"constructor"},{"inputs":[],"name":"DelegationExpired","type":"error"},{"inputs":[],"name":"DelegationNotFound","type":"error"},{"inputs":[],"name":"InvalidSignature","type":"error"},{"inputs":[],"name":"MonthlyLimitExceeded","type":"error"},{"inputs":[{"internalType":"string","name":"reason","type":"string"}],"name":"PolicyViolation","type":"error"},{"inputs":[],"name":"UnauthorizedCaller","type":"error"},{"inputs":[],"name":"ZeroAddress","type":"error"},{"anonymous":false,"inputs":[{"indexed":true,"internalType":"address","name":"user","type":"address"},{"indexed":true,"internalType":"address","name":"delegate","type":"address"},{"indexed":true,"internalType":"bytes32","name":"policyHash","type":"bytes32"},{"indexed":false,"internalType":"uint256","name":"expiration","type":"uint256"}],"name":"DelegationCreated","type":"event"},{"anonymous":false,"inputs":[{"indexed":true,"internalType":"address","name":"user","type":"address"},{"indexed":true,"internalType":"address","name":"delegate","type":"address"},{"indexed":false,"internalType":"uint256","name":"timestamp","type":"uint256"}],"name":"DelegationRevoked","type":"event"},{"anonymous":false,"inputs":[{"indexed":true,"internalType":"address","name":"user","type":"address"},{"indexed":true,"internalType":"address","name":"delegate","type":"address"},{"indexed":false,"internalType":"uint256","name":"value","type":"uint256"},{"indexed":false,"internalType":"enum TaxeeTypes.ActionType","name":"action","type":"uint8"}],"name":"DelegationUsed","type":"event"},{"anonymous":false,"inputs":[{"indexed":true,"internalType":"address","name":"user","type":"address"},{"indexed":false,"internalType":"uint256","name":"newRemaining","type":"uint256"},{"indexed":false,"internalType":"uint256","name":"monthStart","type":"uint256"}],"name":"MonthlyLimitUpdated","type":"event"},{"inputs":[],"name":"DOMAIN_SEPARATOR","outputs":[{"internalType":"bytes32","name":"","type":"bytes32"}],"stateMutability":"view","type":"function"},{"inputs":[{"components":[{"internalType":"address","name":"delegate","type":"address"},{"internalType":"bytes32","name":"policyHash","type":"bytes32"},{"internalType":"uint256","name":"expiration","type":"uint256"},{"internalType":"uint256","name":"maxPerTx","type":"uint256"},{"internalType":"uint256","name":"maxPerMonth","type":"uint256"},{"internalType":"bool","name":"isActive","type":"bool"},{"internalType":"uint256","name":"createdAt","type":"uint256"},{"internalType":"bytes","name":"signature","type":"bytes"}],"internalType":"struct TaxeeTypes.Delegation","name":"delegation","type":"tuple"}],"name":"createDelegation","outputs":[],"stateMutability":"nonpayable","type":"function"},{"inputs":[{"internalType":"address","name":"user","type":"address"},{"components":[{"internalType":"address","name":"delegate","type":"address"},{"internalType":"bytes32","name":"policyHash","type":"bytes32"},{"internalType":"uint256","name":"expiration","type":"uint256"},{"internalType":"uint256","name":"maxPerTx","type":"uint256"},{"internalType":"uint256","name":"maxPerMonth","type":"uint256"},{"internalType":"bool","name":"isActive","type":"bool"},{"internalType":"uint256","name":"createdAt","type":"uint256"},{"internalType":"bytes","name":"signature","type":"bytes"}],"internalType":"struct TaxeeTypes.Delegation","name":"delegation","type":"tuple"},{"internalType":"bytes","name":"signature","type":"bytes"}],"name":"createDelegationWithSignature","outputs":[],"stateMutability":"nonpayable","type":"function"},{"inputs":[{"internalType":"address","name":"","type":"address"}],"name":"currentMonthStart","outputs":[{"internalType":"uint256","name":"","type":"uint256"}],"stateMutability":"view","type":"function"},{"inputs":[{"internalType":"address","name":"","type":"address"}],"name":"delegations","outputs":[{"internalType":"address","name":"delegate","type":"address"},{"internalType":"bytes32","name":"policyHash","type":"bytes32"},{"internalType":"uint256","name":"expiration","type":"uint256"},{"internalType":"uint256","name":"maxPerTx","type":"uint256"},{"internalType":"uint256","name":"maxPerMonth","type":"uint256"},{"internalType":"bool","name":"isActive","type":"bool"},{"internalType":"uint256","name":"createdAt","type":"uint256"},{"internalType":"bytes","name":"signature","type":"bytes"}],"stateMutability":"view","type":"function"},{"inputs":[{"internalType":"address","name":"user","type":"address"}],"name":"getRemainingMonthlyLimit","outputs":[{"internalType":"uint256","name":"remaining","type":"uint256"},{"internalType":"uint256","name":"monthStart","type":"uint256"}],"stateMutability":"view","type":"function"},{"inputs":[{"internalType":"address","name":"user","type":"address"}],"name":"hasActiveDelegation","outputs":[{"internalType":"bool","name":"hasDelegation","type":"bool"},{"internalType":"uint256","name":"expiration","type":"uint256"}],"stateMutability":"view","type":"function"},{"inputs":[{"internalType":"address","name":"","type":"address"},{"internalType":"uint256","name":"","type":"uint256"}],"name":"monthlyUsage","outputs":[{"internalType":"uint256","name":"","type":"uint256"}],"stateMutability":"view","type":"function"},{"inputs":[{"internalType":"address","name":"","type":"address"}],"name":"nonces","outputs":[{"internalType":"uint256","name":"","type":"uint256"}],"stateMutability":"view","type":"function"},{"inputs":[],"name":"owner","outputs":[{"internalType":"address","name":"","type":"address"}],"stateMutability":"view","type":"function"},{"inputs":[],"name":"revokeDelegation","outputs":[],"stateMutability":"nonpayable","type":"function"},{"inputs":[{"internalType":"address","name":"_taxeeManager","type":"address"}],"name":"setTaxeeManager","outputs":[],"stateMutability":"nonpayable","type":"function"},{"inputs":[],"name":"taxeeManager","outputs":[{"internalType":"address","name":"","type":"address"}],"stateMutability":"view","type":"function"},{"inputs":[{"internalType":"address","name":"user","type":"address"},{"internalType":"uint256","name":"value","type":"uint256"},{"internalType":"enum TaxeeTypes.ActionType","name":"action","type":"uint8"}],"name":"validateAndRecordUsage","outputs":[{"internalType":"bool","name":"valid","type":"bool"}],"stateMutability":"nonpayable","type":"function"}],"evm":{"bytecode":{"linkReferences":{},"object":"60a060405234801561001057600080fd5b50600480546001600160a01b031916331790556040805180820182526005815264546178656560d81b6020918201528151808301835260018152603160f81b9082015281517f8b73c3c69bb8fe3d512ecc4cf759cc79239f7b179b0ffacaa9a75d522b39400f918101919091527fa56fd3fd010f6403025de54c5caf6b6244b238603d475c02bffc9020df00f714918101919091527fc89efdaa54c0f20c7adf612882df0950f5a951637e0307cdcb4c672f298b8bc660608201524660808201523060a082015260c00160408051601f19818403018152919052805160209091012060805260805161125761011760003960008181610174015261052901526112576000f3fe608060405234801561001057600080fd5b50600436106100ea5760003560e01c80637ecebe001161008c578063a4d3180511610066578063a4d318051461025c578063a75742b714610264578063bffe348614610277578063e175b4521461029e57600080fd5b80637ecebe00146101fe5780638da5cb5b1461021e5780639fef96561461024957600080fd5b80633644e515116100c85780633644e5151461016f5780633a54bc77146101965780636c47a99e146101ab5780636fe36824146101d357600080fd5b80630a0a97c6146100ef57806326f0e02c146101175780633163827e14610145575b600080fd5b6101026100fd366004610dbc565b6102b1565b60405190151581526020015b60405180910390f35b610137610125366004610e00565b60026020526000908152604090205481565b60405190815260200161010e565b610158610153366004610e00565b61040d565b60408051921515835260208301919091520161010e565b6101377f000000000000000000000000000000000000000000000000000000000000000081565b6101a96101a4366004610e3b565b61044f565b005b6101be6101b9366004610e00565b6105fd565b6040805192835260208301919091520161010e565b6101376101e1366004610edd565b600160209081526000928352604080842090915290825290205481565b61013761020c366004610e00565b60056020526000908152604090205481565b600454610231906001600160a01b031681565b6040516001600160a01b03909116815260200161010e565b6101a9610257366004610f07565b61068e565b6101a961069b565b6101a9610272366004610e00565b610723565b61028a610285366004610e00565b610797565b60405161010e989796959493929190610f44565b600354610231906001600160a01b031681565b6003546000906001600160a01b031633146102df57604051635c427cd960e01b815260040160405180910390fd5b6001600160a01b0384166000908152602081905260409020600581015460ff1661031c57604051631dc8319b60e01b815260040160405180910390fd5b806002015442111561034e5760058101805460ff19169055604080516330d3ba0760e01b815290519081900360040190fd5b80600301548411156103a857604051631a63e46960e21b815260206004820152601d60248201527f45786365656473207065722d7472616e73616374696f6e206c696d697400000060448201526064015b60405180910390fd5b6103b785858360040154610874565b80546040516001600160a01b03918216918716907f984077676ff830cc4ba1efa2826fb12fe83ccfbd6d112ea647f4827f71ed76e1906103fa9088908890610fd8565b60405180910390a3506001949350505050565b6001600160a01b0381166000908152602081905260408120600581015482919060ff168015610440575080600201544211155b92508060020154915050915091565b60007fdddc2e42ccfde0703c83483190e3c69ad5b0e465f102323822fbb9bbaa9cd1ed61047f6020860186610e00565b6001600160a01b03871660009081526005602090815260408083208054928a013593918a01359260608b01359260808c013592906104bc83611020565b909155506040805160208101989098526001600160a01b03909616958701959095526060860193909352608085019190915260a084015260c083015260e08201526101000160408051601f1981840301815290829052805160209182012061190160f01b918301919091527f0000000000000000000000000000000000000000000000000000000000000000602283015260428201819052915060009060620160405160208183030381529060405280519060200120905060006105b68286868080601f0160208091040260200160405190810160405280939291908181526020018383808284376000920191909152506109a892505050565b9050866001600160a01b0316816001600160a01b0316146105ea57604051638baa579f60e01b815260040160405180910390fd5b6105f48787610a8d565b50505050505050565b6001600160a01b03811660009081526020818152604080832060029092528220549061062c8262278d00611039565b421061063e5780600401549250610688565b6001600160a01b038416600090815260016020908152604080832085845290915290205460048201548110610674576000610684565b808260040154610684919061104c565b9350505b50915091565b6106983382610a8d565b50565b336000818152602081905260409020600581015460ff166106cf57604051631dc8319b60e01b815260040160405180910390fd5b60058101805460ff1916905580546040514281526001600160a01b03918216918416907f8804646c776ee4e91100fb6859354b09a479e5b7fceaa9c7c7364e7d63a1bc819060200160405180910390a35050565b6004546001600160a01b0316331461074e57604051635c427cd960e01b815260040160405180910390fd5b6001600160a01b0381166107755760405163d92e233d60e01b815260040160405180910390fd5b600380546001600160a01b0319166001600160a01b0392909216919091179055565b600060208190529081526040902080546001820154600283015460038401546004850154600586015460068701546007880180546001600160a01b0390981698969795969495939460ff909316939192916107f19061105f565b80601f016020809104026020016040519081016040528092919081815260200182805461081d9061105f565b801561086a5780601f1061083f5761010080835404028352916020019161086a565b820191906000526020600020905b81548152906001019060200180831161084d57829003601f168201915b5050505050905088565b6001600160a01b03831660009081526002602052604090205461089a8162278d00611039565b42106108d557506001600160a01b03831660009081526002602090815260408083204290819055600183528184208185529092528220919091555b6001600160a01b0384166000908152600160209081526040808320848452909152902054826109048583611039565b111561092357604051633398515360e01b815260040160405180910390fd5b61092d8482611039565b6001600160a01b03861660008181526001602090815260408083208784529091529020919091557fafe0e4fef9b3be128843be281c9c2e72b033c3b690d7f3aa914b910238ae111285610980848761104c565b61098a919061104c565b60408051918252602082018690520160405180910390a25050505050565b600081516041146109fb5760405162461bcd60e51b815260206004820152601860248201527f496e76616c6964207369676e6174757265206c656e6774680000000000000000604482015260640161039f565b60208201516040830151606084015160001a601b811015610a2457610a21601b82611093565b90505b60408051600081526020810180835288905260ff831691810191909152606081018490526080810183905260019060a0016020604051602081039080840390855afa158015610a77573d6000803e3d6000fd5b5050506020604051035193505050505b92915050565b6000610a9c6020830183610e00565b6001600160a01b031603610ac35760405163d92e233d60e01b815260040160405180910390fd5b42816040013511610b1757604051631a63e46960e21b815260206004820152601c60248201527f45787069726174696f6e206d75737420626520696e2066757475726500000000604482015260640161039f565b60608101351580610b2a57506080810135155b15610b7857604051631a63e46960e21b815260206004820181905260248201527f4c696d697473206d7573742062652067726561746572207468616e207a65726f604482015260640161039f565b806080013581606001351115610beb57604051631a63e46960e21b815260206004820152603160248201527f5065722d7472616e73616374696f6e206c696d69742063616e6e6f7420657863604482015270195959081b5bdb9d1a1b1e481b1a5b5a5d607a1b606482015260840161039f565b60408051610100810190915280610c056020840184610e00565b6001600160a01b0316815260200182602001358152602001826040013581526020018260600135815260200182608001358152602001600115158152602001428152602001828060e00190610c5a91906110ac565b8080601f01602080910402602001604051908101604052809392919081815260200183838082843760009201829052509390945250506001600160a01b0385811682526020828152604092839020855181546001600160a01b03191693169290921782558401516001820155908301516002820155606083015160038201556080830151600482015560a083015160058201805460ff191691151591909117905560c0830151600682015560e08301519091506007820190610d1c9082611161565b5050506001600160a01b03821660009081526002602090815260409091204290558101803590610d4c9083610e00565b6001600160a01b0316836001600160a01b03167fb94ca423709a351f789a9c764a370660ed8c52e6e0607aeb0a7a0169518500c38460400135604051610d9491815260200190565b60405180910390a45050565b80356001600160a01b0381168114610db757600080fd5b919050565b600080600060608486031215610dd157600080fd5b610dda84610da0565b925060208401359150604084013560048110610df557600080fd5b809150509250925092565b600060208284031215610e1257600080fd5b610e1b82610da0565b9392505050565b60006101008284031215610e3557600080fd5b50919050565b60008060008060608587031215610e5157600080fd5b610e5a85610da0565b9350602085013567ffffffffffffffff80821115610e7757600080fd5b610e8388838901610e22565b94506040870135915080821115610e9957600080fd5b818701915087601f830112610ead57600080fd5b813581811115610ebc57600080fd5b886020828501011115610ece57600080fd5b95989497505060200194505050565b60008060408385031215610ef057600080fd5b610ef983610da0565b946020939093013593505050565b600060208284031215610f1957600080fd5b813567ffffffffffffffff811115610f3057600080fd5b610f3c84828501610e22565b949350505050565b600061010060018060a01b038b16835260208a602085015289604085015288606085015287608085015286151560a08501528560c08501528160e085015284518083860152600092505b80831015610fad57858301820151858401610120015291810191610f8e565b6101209250600083828701015282601f19601f83011686010193505050509998505050505050505050565b8281526040810160048310610ffd57634e487b7160e01b600052602160045260246000fd5b8260208301529392505050565b634e487b7160e01b600052601160045260246000fd5b6000600182016110325761103261100a565b5060010190565b80820180821115610a8757610a8761100a565b81810381811115610a8757610a8761100a565b600181811c9082168061107357607f821691505b602082108103610e3557634e487b7160e01b600052602260045260246000fd5b60ff8181168382160190811115610a8757610a8761100a565b6000808335601e198436030181126110c357600080fd5b83018035915067ffffffffffffffff8211156110de57600080fd5b6020019150368190038213156110f357600080fd5b9250929050565b634e487b7160e01b600052604160045260246000fd5b601f82111561115c576000816000526020600020601f850160051c810160208610156111395750805b601f850160051c820191505b8181101561115857828155600101611145565b5050505b505050565b815167ffffffffffffffff81111561117b5761117b6110fa565b61118f81611189845461105f565b84611110565b602080601f8311600181146111c457600084156111ac5750858301515b600019600386901b1c1916600185901b178555611158565b600085815260208120601f198616915b828110156111f3578886015182559484019460019091019084016111d4565b50858210156112115787850151600019600388901b60f8161c191681555b5050505050600190811b0190555056fea264697066735822122043be0daf9de1e13f99f2eaac8fa30e31a55b1b23fdc7c7bbee0a70596324ffb664736f6c63430008180033","opcodes":"PUSH1 0xA0 PUSH1 0x40 MSTORE CALLVALUE DUP1 ISZERO PUSH2 0x10 JUMPI PUSH1 0x0 DUP1 REVERT JUMPDEST POP PUSH1 0x4 DUP1 SLOAD PUSH1 0x1 PUSH1 0x1 PUSH1 0xA0 SHL SUB NOT AND CALLER OR SWAP1 SSTORE PUSH1 0x40 DUP1 MLOAD DUP1 DUP3 ADD DUP3 MSTORE PUSH1 0x5 DUP2 MSTORE PUSH5 0x5461786565 PUSH1 0xD8 SHL PUSH1 0x20 SWAP2 DUP3 ADD MSTORE DUP2 MLOAD DUP1 DUP4 ADD DUP4 MSTORE PUSH1 0x1 DUP2 MSTORE PUSH1 0x31 PUSH1 0xF8 SHL SWAP1 DUP3 ADD MSTORE DUP2 MLOAD PUSH32 0x8B73C3C69BB8FE3D512ECC4CF759CC79239F7B179B0FFACAA9A75D522B39400F SWAP2 DUP2 ADD SWAP2 SWAP1 SWAP2 MSTORE PUSH32 0xA56FD3FD010F6403025DE54C5CAF6B6244B238603D475C02BFFC9020DF00F714 SWAP2 DUP2 ADD SWAP2 SWAP1 SWAP2 MSTORE PUSH32 0xC89EFDAA54C0F20C7ADF612882DF0950F5A951637E0307CDCB4C672F298B8BC6 PUSH1 0x60 DUP3 ADD MSTORE CHAINID PUSH1 0x80 DUP3 ADD MSTORE ADDRESS PUSH1 0xA0 DUP3 ADD MSTORE PUSH1 0xC0 ADD PUSH1 0x40 DUP1 MLOAD PUSH1 0x1F NOT DUP2 DUP5 SUB ADD DUP2 MSTORE SWAP2 SWAP1 MSTORE DUP1 MLOAD PUSH1 0x20 SWAP1 SWAP2 ADD KECCAK256 PUSH1 0x80 MSTORE PUSH1 0x80 MLOAD PUSH2 0x1257 PUSH2 0x117 PUSH1 0x0 CODECOPY PUSH1 0x0 DUP2 DUP2 PUSH2 0x174 ADD MSTORE PUSH2 0x529 ADD MSTORE PUSH2 0x1257 PUSH1 0x0 RETURN INVALID PUSH1 0x80 PUSH1 0x40 MSTORE CALLVALUE DUP1 ISZERO PUSH2 0x10 JUMPI PUSH1 0x0 DUP1 REVERT JUMPDEST POP PUSH1 0x4 CALLDATASIZE LT PUSH2 0xEA JUMPI PUSH1 0x0 CALLDATALOAD PUSH1 0xE0 SHR DUP1 PUSH4 0x7ECEBE00 GT PUSH2 0x8C JUMPI DUP1 PUSH4 0xA4D31805 GT PUSH2 0x66 JUMPI DUP1 PUSH4 0xA4D31805 EQ PUSH2 0x25C JUMPI DUP1 PUSH4 0xA75742B7 EQ PUSH2 0x264 JUMPI DUP1 PUSH4 0xBFFE3486 EQ PUSH2 0x277 JUMPI DUP1 PUSH4 0xE175B452 EQ PUSH2 0x29E JUMPI PUSH1 0x0 DUP1 REVERT JUMPDEST DUP1 PUSH4 0x7ECEBE00 EQ PUSH2 0x1FE JUMPI DUP1 PUSH4 0x8DA5CB5B EQ PUSH2 0x21E JUMPI DUP1 PUSH4 0x9FEF9656 EQ PUSH2 0x249 JUMPI PUSH1 0x0 DUP1 REVERT JUMPDEST DUP1 PUSH4 0x3644E515 GT PUSH2 0xC8 JUMPI DUP1 PUSH4 0x3644E515 EQ PUSH2 0x16F JUMPI DUP1 PUSH4 0x3A54BC77 EQ PUSH2 0x196 JUMPI DUP1 PUSH4 0x6C47A99E EQ PUSH2 0x1AB JUMPI DUP1 PUSH4 0x6FE36824 EQ PUSH2 0x1D3 JUMPI PUSH1 0x0 DUP1 REVERT JUMPDEST DUP1 PUSH4 0xA0A97C6 EQ PUSH2 0xEF JUMPI DUP1 PUSH4 0x26F0E02C EQ PUSH2 0x117 JUMPI DUP1 PUSH4 0x3163827E EQ PUSH2 0x145 JUMPI JUMPDEST PUSH1 0x0 DUP1 REVERT JUMPDEST PUSH2 0x102 PUSH2 0xFD CALLDATASIZE PUSH1 0x4 PUSH2 0xDBC JUMP JUMPDEST PUSH2 0x2B1 JUMP JUMPDEST PUSH1 0x40 MLOAD SWAP1 ISZERO ISZERO DUP2 MSTORE PUSH1 0x20 ADD JUMPDEST PUSH1 0x40 MLOAD DUP1 SWAP2 SUB SWAP1 RETURN JUMPDEST PUSH2 0x137 PUSH2 0x125 CALLDATASIZE PUSH1 0x4 PUSH2 0xE00 JUMP JUMPDEST PUSH1 0x2 PUSH1 0x20 MSTORE PUSH1 0x0 SWAP1 DUP2 MSTORE PUSH1 0x40 SWAP1 KECCAK256 SLOAD DUP2 JUMP JUMPDEST PUSH1 0x40 MLOAD SWAP1 DUP2 MSTORE PUSH1 0x20 ADD PUSH2 0x10E JUMP JUMPDEST PUSH2 0x158 PUSH2 0x153 CALLDATASIZE PUSH1 0x4 PUSH2 0xE00 JUMP JUMPDEST PUSH2 0x40D JUMP JUMPDEST PUSH1 0x40 DUP1 MLOAD SWAP3 ISZERO ISZERO DUP4 MSTORE PUSH1 0x20 DUP4 ADD SWAP2 SWAP1 SWAP2 MSTORE ADD PUSH2 0x10E JUMP JUMPDEST PUSH2 0x137 PUSH32 0x0 DUP2 JUMP JUMPDEST PUSH2 0x1A9 PUSH2 0x1A4 CALLDATASIZE PUSH1 0x4 PUSH2 0xE3B JUMP JUMPDEST PUSH2 0x44F JUMP JUMPDEST STOP JUMPDEST PUSH2 0x1BE PUSH2 0x1B9 CALLDATASIZE PUSH1 0x4 PUSH2 0xE00 JUMP JUMPDEST PUSH2 0x5FD JUMP JUMPDEST PUSH1 0x40 DUP1 MLOAD SWAP3 DUP4 MSTORE PUSH1 0x20 DUP4 ADD SWAP2 SWAP1 SWAP2 MSTORE ADD PUSH2 0x10E JUMP JUMPDEST PUSH2 0x137 PUSH2 0x1E1 CALLDATASIZE PUSH1 0x4 PUSH2 0xEDD JUMP JUMPDEST PUSH1 0x1 PUSH1 0x20 SWAP1 DUP2 MSTORE PUSH1 0x0 SWAP3 DUP4 MSTORE PUSH1 0x40 DUP1 DUP5 KECCAK256 SWAP1 SWAP2 MSTORE SWAP1 DUP3 MSTORE SWAP1 KECCAK256 SLOAD DUP2 JUMP JUMPDEST PUSH2 0x137 PUSH2 0x20C CALLDATASIZE PUSH1 0x4 PUSH2 0xE00 JUMP JUMPDEST PUSH1 0x5 PUSH1 0x20 MSTORE PUSH1 0x0 SWAP1 DUP2 MSTORE PUSH1 0x40 SWAP1 KECCAK256 SLOAD DUP2 JUMP JUMPDEST PUSH1 0x4 SLOAD PUSH2 0x231 SWAP1 PUSH1 0x1 PUSH1 0x1 PUSH1 0xA0 SHL SUB AND DUP2 JUMP JUMPDEST PUSH1 0x40 MLOAD PUSH1 0x1 PUSH1 0x1 PUSH1 0xA0 SHL SUB SWAP1 SWAP2 AND DUP2 MSTORE PUSH1 0x20 ADD PUSH2 0x10E JUMP JUMPDEST PUSH2 0x1A9 PUSH2 0x257 CALLDATASIZE PUSH1 0x4 PUSH2 0xF07 JUMP JUMPDEST PUSH2 0x68E JUMP JUMPDEST PUSH2 0x1A9 PUSH2 0x69B JUMP JUMPDEST PUSH2 0x1A9 PUSH2 0x272 CALLDATASIZE PUSH1 0x4 PUSH2 0xE00 JUMP JUMPDEST PUSH2 0x723 JUMP JUMPDEST PUSH2 0x28A PUSH2 0x285 CALLDATASIZE PUSH1 0x4 PUSH2 0xE00 JUMP JUMPDEST PUSH2 0x797 JUMP JUMPDEST PUSH1 0x40 MLOAD PUSH2 0x10E SWAP9 SWAP8 SWAP7 SWAP6 SWAP5 SWAP4 SWAP3 SWAP2 SWAP1 PUSH2 0xF44 JUMP JUMPDEST PUSH1 0x3 SLOAD PUSH2 0x231 SWAP1 PUSH1 0x1 PUSH1 0x1 PUSH1 0xA0 SHL SUB AND DUP2 JUMP JUMPDEST PUSH1 0x3 SLOAD PUSH1 0x0 SWAP1 PUSH1 0x1 PUSH1 0x1 PUSH1 0xA0 SHL SUB AND CALLER EQ PUSH2 0x2DF JUMPI PUSH1 0x40 MLOAD PUSH4 0x5C427CD9 PUSH1 0xE0 SHL DUP2 MSTORE PUSH1 0x4 ADD PUSH1 0x40 MLOAD DUP1 SWAP2 SUB SWAP1 REVERT JUMPDEST PUSH1 0x1 PUSH1 0x1 PUSH1 0xA0 SHL SUB DUP5 AND PUSH1 0x0 SWAP1 DUP2 MSTORE PUSH1 0x20 DUP2 SWAP1 MSTORE PUSH1 0x40 SWAP1 KECCAK256 PUSH1 0x5 DUP2 ADD SLOAD PUSH1 0xFF AND PUSH2 0x31C JUMPI PUSH1 0x40 MLOAD PUSH4 0x1DC8319B PUSH1 0xE0 SHL DUP2 MSTORE PUSH1 0x4 ADD PUSH1 0x40 MLOAD DUP1 SWAP2 SUB SWAP1 REVERT JUMPDEST DUP1 PUSH1 0x2 ADD SLOAD TIMESTAMP GT ISZERO PUSH2 0x34E JUMPI PUSH1 0x5 DUP2 ADD DUP1 SLOAD PUSH1 0xFF NOT AND SWAP1 SSTORE PUSH1 0x40 DUP1 MLOAD PUSH4 0x30D3BA07 PUSH1 0xE0 SHL DUP2 MSTORE SWAP1 MLOAD SWAP1 DUP2 SWAP1 SUB PUSH1 0x4 ADD SWAP1 REVERT JUMPDEST DUP1 PUSH1 0x3 ADD SLOAD DUP5 GT ISZERO PUSH2 0x3A8 JUMPI PUSH1 0x40 MLOAD PUSH4 0x1A63E469 PUSH1 0xE2 SHL DUP2 MSTORE PUSH1 0x20 PUSH1 0x4 DUP3 ADD MSTORE PUSH1 0x1D PUSH1 0x24 DUP3 ADD MSTORE PUSH32 0x45786365656473207065722D7472616E73616374696F6E206C696D6974000000 PUSH1 0x44 DUP3 ADD MSTORE PUSH1 0x64 ADD JUMPDEST PUSH1 0x40 MLOAD DUP1 SWAP2 SUB SWAP1 REVERT JUMPDEST PUSH2 0x3B7 DUP6 DUP6 DUP4 PUSH1 0x4 ADD SLOAD PUSH2 0x874 JUMP JUMPDEST DUP1 SLOAD PUSH1 0x40 MLOAD PUSH1 0x1 PUSH1 0x1 PUSH1 0xA0 SHL SUB SWAP2 DUP3 AND SWAP2 DUP8 AND SWAP1 PUSH32 0x984077676FF830CC4BA1EFA2826FB12FE83CCFBD6D112EA647F4827F71ED76E1 SWAP1 PUSH2 0x3FA SWAP1 DUP9 SWAP1 DUP9 SWAP1 PUSH2 0xFD8 JUMP JUMPDEST PUSH1 0x40 MLOAD DUP1 SWAP2 SUB SWAP1 LOG3 POP PUSH1 0x1 SWAP5 SWAP4 POP POP POP POP JUMP JUMPDEST PUSH1 0x1 PUSH1 0x1 PUSH1 0xA0 SHL SUB DUP2 AND PUSH1 0x0 SWAP1 DUP2 MSTORE PUSH1 0x20 DUP2 SWAP1 MSTORE PUSH1 0x40 DUP2 KECCAK256 PUSH1 0x5 DUP2 ADD SLOAD DUP3 SWAP2 SWAP1 PUSH1 0xFF AND DUP1 ISZERO PUSH2 0x440 JUMPI POP DUP1 PUSH1 0x2 ADD SLOAD TIMESTAMP GT ISZERO JUMPDEST SWAP3 POP DUP1 PUSH1 0x2 ADD SLOAD SWAP2 POP POP SWAP2 POP SWAP2 JUMP JUMPDEST PUSH1 0x0 PUSH32 0xDDDC2E42CCFDE0703C83483190E3C69AD5B0E465F102323822FBB9BBAA9CD1ED PUSH2 0x47F PUSH1 0x20 DUP7 ADD DUP7 PUSH2 0xE00 JUMP JUMPDEST PUSH1 0x1 PUSH1 0x1 PUSH1 0xA0 SHL SUB DUP8 AND PUSH1 0x0 SWAP1 DUP2 MSTORE PUSH1 0x5 PUSH1 0x20 SWAP1 DUP2 MSTORE PUSH1 0x40 DUP1 DUP4 KECCAK256 DUP1 SLOAD SWAP3 DUP11 ADD CALLDATALOAD SWAP4 SWAP2 DUP11 ADD CALLDATALOAD SWAP3 PUSH1 0x60 DUP12 ADD CALLDATALOAD SWAP3 PUSH1 0x80 DUP13 ADD CALLDATALOAD SWAP3 SWAP1 PUSH2 0x4BC DUP4 PUSH2 0x1020 JUMP JUMPDEST SWAP1 SWAP2 SSTORE POP PUSH1 0x40 DUP1 MLOAD PUSH1 0x20 DUP2 ADD SWAP9 SWAP1 SWAP9 MSTORE PUSH1 0x1 PUSH1 0x1 PUSH1 0xA0 SHL SUB SWAP1 SWAP7 AND SWAP6 DUP8 ADD SWAP6 SWAP1 SWAP6 MSTORE PUSH1 0x60 DUP7 ADD SWAP4 SWAP1 SWAP4 MSTORE PUSH1 0x80 DUP6 ADD SWAP2 SWAP1 SWAP2 MSTORE PUSH1 0xA0 DUP5 ADD MSTORE PUSH1 0xC0 DUP4 ADD MSTORE PUSH1 0xE0 DUP3 ADD MSTORE PUSH2 0x100 ADD PUSH1 0x40 DUP1 MLOAD PUSH1 0x1F NOT DUP2 DUP5 SUB ADD DUP2 MSTORE SWAP1 DUP3 SWAP1 MSTORE DUP1 MLOAD PUSH1 0x20 SWAP2 DUP3 ADD KECCAK256 PUSH2 0x1901 PUSH1 0xF0 SHL SWAP2 DUP4 ADD SWAP2 SWAP1 SWAP2 MSTORE PUSH32 0x0 PUSH1 0x22 DUP4 ADD MSTORE PUSH1 0x42 DUP3 ADD DUP2 SWAP1 MSTORE SWAP2 POP PUSH1 0x0 SWAP1 PUSH1 0x62 ADD PUSH1 0x40 MLOAD PUSH1 0x20 DUP2 DUP4 SUB SUB DUP2 MSTORE SWAP1 PUSH1 0x40 MSTORE DUP1 MLOAD SWAP1 PUSH1 0x20 ADD KECCAK256 SWAP1 POP PUSH1 0x0 PUSH2 0x5B6 DUP3 DUP7 DUP7 DUP1 DUP1 PUSH1 0x1F ADD PUSH1 0x20 DUP1 SWAP2 DIV MUL PUSH1 0x20 ADD PUSH1 0x40 MLOAD SWAP1 DUP2 ADD PUSH1 0x40 MSTORE DUP1 SWAP4 SWAP3 SWAP2 SWAP1 DUP2 DUP2 MSTORE PUSH1 0x20 ADD DUP4 DUP4 DUP1 DUP3 DUP5 CALLDATACOPY PUSH1 0x0 SWAP3 ADD SWAP2 SWAP1 SWAP2 MSTORE POP PUSH2 0x9A8 SWAP3 POP POP POP JUMP JUMPDEST SWAP1 POP DUP7 PUSH1 0x1 PUSH1 0x1 PUSH1 0xA0 SHL SUB AND DUP2 PUSH1 0x1 PUSH1 0x1 PUSH1 0xA0 SHL SUB AND EQ PUSH2 0x5EA JUMPI PUSH1 0x40 MLOAD PUSH4 0x8BAA579F PUSH1 0xE0 SHL DUP2 MSTORE PUSH1 0x4 ADD PUSH1 0x40 MLOAD DUP1 SWAP2 SUB SWAP1 REVERT JUMPDEST PUSH2 0x5F4 DUP8 DUP8 PUSH2 0xA8D JUMP JUMPDEST POP POP POP POP POP POP POP JUMP JUMPDEST PUSH1 0x1 PUSH1 0x1 PUSH1 0xA0 SHL SUB DUP2 AND PUSH1 0x0 SWAP1 DUP2 MSTORE PUSH1 0x20 DUP2 DUP2 MSTORE PUSH1 0x40 DUP1 DUP4 KECCAK256 PUSH1 0x2 SWAP1 SWAP3 MSTORE DUP3 KECCAK256 SLOAD SWAP1 PUSH2 0x62C DUP3 PUSH3 0x278D00 PUSH2 0x1039 JUMP JUMPDEST TIMESTAMP LT PUSH2 0x63E JUMPI DUP1 PUSH1 0x4 ADD SLOAD SWAP3 POP PUSH2 0x688 JUMP JUMPDEST PUSH1 0x1 PUSH1 0x1 PUSH1 0xA0 SHL SUB DUP5 AND PUSH1 0x0 SWAP1 DUP2 MSTORE PUSH1 0x1 PUSH1 0x20 SWAP1 DUP2 MSTORE PUSH1 0x40 DUP1 DUP4 KECCAK256 DUP6 DUP5 MSTORE SWAP1 SWAP2 MSTORE SWAP1 KECCAK256 SLOAD PUSH1 0x4 DUP3 ADD SLOAD DUP2 LT PUSH2 0x674 JUMPI PUSH1 0x0 PUSH2 0x684 JUMP JUMPDEST DUP1 DUP3 PUSH1 0x4 ADD SLOAD PUSH2 0x684 SWAP2 SWAP1 PUSH2 0x104C JUMP JUMPDEST SWAP4 POP POP JUMPDEST POP SWAP2 POP SWAP2 JUMP JUMPDEST PUSH2 0x698 CALLER DUP3 PUSH2 0xA8D JUMP JUMPDEST POP JUMP JUMPDEST CALLER PUSH1 0x0 DUP2 DUP2 MSTORE PUSH1 0x20 DUP2 SWAP1 MSTORE PUSH1 0x40 SWAP1 KECCAK256 PUSH1 0x5 DUP2 ADD SLOAD PUSH1 0xFF AND PUSH2 0x6CF JUMPI PUSH1 0x40 MLOAD PUSH4 0x1DC8319B PUSH1 0xE0 SHL DUP2 MSTORE PUSH1 0x4 ADD PUSH1 0x40 MLOAD DUP1 SWAP2 SUB SWAP1 REVERT JUMPDEST PUSH1 0x5 DUP2 ADD DUP1 SLOAD PUSH1 0xFF NOT AND SWAP1 SSTORE DUP1 SLOAD PUSH1 0x40 MLOAD TIMESTAMP DUP2 MSTORE PUSH1 0x1 PUSH1 0x1 PUSH1 0xA0 SHL SUB SWAP2 DUP3 AND SWAP2 DUP5 AND SWAP1 PUSH32 0x8804646C776EE4E91100FB6859354B09A479E5B7FCEAA9C7C7364E7D63A1BC81 SWAP1 PUSH1 0x20 ADD PUSH1 0x40 MLOAD DUP1 SWAP2 SUB SWAP1 LOG3 POP POP JUMP JUMPDEST PUSH1 0x4 SLOAD PUSH1 0x1 PUSH1 0x1 PUSH1 0xA0 SHL SUB AND CALLER EQ PUSH2 0x74E JUMPI PUSH1 0x40 MLOAD PUSH4 0x5C427CD9 PUSH1 0xE0 SHL DUP2 MSTORE PUSH1 0x4 ADD PUSH1 0x40 MLOAD DUP1 SWAP2 SUB SWAP1 REVERT JUMPDEST PUSH1 0x1 PUSH1 0x1 PUSH1 0xA0 SHL SUB DUP2 AND PUSH2 0x775 JUMPI PUSH1 0x40 MLOAD PUSH4 0xD92E233D PUSH1 0xE0 SHL DUP2 MSTORE PUSH1 0x4 ADD PUSH1 0x40 MLOAD DUP1 SWAP2 SUB SWAP1 REVERT JUMPDEST PUSH1 0x3 DUP1 SLOAD PUSH1 0x1 PUSH1 0x1 PUSH1 0xA0 SHL SUB NOT AND PUSH1 0x1 PUSH1 0x1 PUSH1 0xA0 SHL SUB SWAP3 SWAP1 SWAP3 AND SWAP2 SWAP1 SWAP2 OR SWAP1 SSTORE JUMP JUMPDEST PUSH1 0x0 PUSH1 0x20 DUP2 SWAP1 MSTORE SWAP1 DUP2 MSTORE PUSH1 0x40 SWAP1 KECCAK256 DUP1 SLOAD PUSH1 0x1 DUP3 ADD SLOAD PUSH1 0x2 DUP4 ADD SLOAD PUSH1 0x3 DUP5 ADD SLOAD PUSH1 0x4 DUP6 ADD SLOAD PUSH1 0x5 DUP7 ADD SLOAD PUSH1 0x6 DUP8 ADD SLOAD PUSH1 0x7 DUP9 ADD DUP1 SLOAD PUSH1 0x1 PUSH1 0x1 PUSH1 0xA0 SHL SUB SWAP1 SWAP9 AND SWAP9 SWAP7 SWAP8 SWAP6 SWAP7 SWAP5 SWAP6 SWAP4 SWAP5 PUSH1 0xFF SWAP1 SWAP4 AND SWAP4 SWAP2 SWAP3 SWAP2 PUSH2 0x7F1 SWAP1 PUSH2 0x105F JUMP JUMPDEST DUP1 PUSH1 0x1F ADD PUSH1 0x20 DUP1 SWAP2 DIV MUL PUSH1 0x20 ADD PUSH1 0x40 MLOAD SWAP1 DUP2 ADD PUSH1 0x40 MSTORE DUP1 SWAP3 SWAP2 SWAP1 DUP2 DUP2 MSTORE PUSH1 0x20 ADD DUP3 DUP1 SLOAD PUSH2 0x81D SWAP1 PUSH2 0x105F JUMP JUMPDEST DUP1 ISZERO PUSH2 0x86A JUMPI DUP1 PUSH1 0x1F LT PUSH2 0x83F JUMPI PUSH2 0x100 DUP1 DUP4 SLOAD DIV MUL DUP4 MSTORE SWAP2 PUSH1 0x20 ADD SWAP2 PUSH2 0x86A JUMP JUMPDEST DUP3 ADD SWAP2 SWAP1 PUSH1 0x0 MSTORE PUSH1 0x20 PUSH1 0x0 KECCAK256 SWAP1 JUMPDEST DUP2 SLOAD DUP2 MSTORE SWAP1 PUSH1 0x1 ADD SWAP1 PUSH1 0x20 ADD DUP1 DUP4 GT PUSH2 0x84D JUMPI DUP3 SWAP1 SUB PUSH1 0x1F AND DUP3 ADD SWAP2 JUMPDEST POP POP POP POP POP SWAP1 POP DUP9 JUMP JUMPDEST PUSH1 0x1 PUSH1 0x1 PUSH1 0xA0 SHL SUB DUP4 AND PUSH1 0x0 SWAP1 DUP2 MSTORE PUSH1 0x2 PUSH1 0x20 MSTORE PUSH1 0x40 SWAP1 KECCAK256 SLOAD PUSH2 0x89A DUP2 PUSH3 0x278D00 PUSH2 0x1039 JUMP JUMPDEST TIMESTAMP LT PUSH2 0x8D5 JUMPI POP PUSH1 0x1 PUSH1 0x1 PUSH1 0xA0 SHL SUB DUP4 AND PUSH1 0x0 SWAP1 DUP2 MSTORE PUSH1 0x2 PUSH1 0x20 SWAP1 DUP2 MSTORE PUSH1 0x40 DUP1 DUP4 KECCAK256 TIMESTAMP SWAP1 DUP2 SWAP1 SSTORE PUSH1 0x1 DUP4 MSTORE DUP2 DUP5 KECCAK256 DUP2 DUP6 MSTORE SWAP1 SWAP3 MSTORE DUP3 KECCAK256 SWAP2 SWAP1 SWAP2 SSTORE JUMPDEST PUSH1 0x1 PUSH1 0x1 PUSH1 0xA0 SHL SUB DUP5 AND PUSH1 0x0 SWAP1 DUP2 MSTORE PUSH1 0x1 PUSH1 0x20 SWAP1 DUP2 MSTORE PUSH1 0x40 DUP1 DUP4 KECCAK256 DUP5 DUP5 MSTORE SWAP1 SWAP2 MSTORE SWAP1 KECCAK256 SLOAD DUP3 PUSH2 0x904 DUP6 DUP4 PUSH2 0x1039 JUMP JUMPDEST GT ISZERO PUSH2 0x923 JUMPI PUSH1 0x40 MLOAD PUSH4 0x33985153 PUSH1 0xE0 SHL DUP2 MSTORE PUSH1 0x4 ADD PUSH1 0x40 MLOAD DUP1 SWAP2 SUB SWAP1 REVERT JUMPDEST PUSH2 0x92D DUP5 DUP3 PUSH2 0x1039 JUMP JUMPDEST PUSH1 0x1 PUSH1 0x1 PUSH1 0xA0 SHL SUB DUP7 AND PUSH1 0x0 DUP2 DUP2 MSTORE PUSH1 0x1 PUSH1 0x20 SWAP1 DUP2 MSTORE PUSH1 0x40 DUP1 DUP4 KECCAK256 DUP8 DUP5 MSTORE SWAP1 SWAP2 MSTORE SWAP1 KECCAK256 SWAP2 SWAP1 SWAP2 SSTORE PUSH32 0xAFE0E4FEF9B3BE128843BE281C9C2E72B033C3B690D7F3AA914B910238AE1112 DUP6 PUSH2 0x980 DUP5 DUP8 PUSH2 0x104C JUMP JUMPDEST PUSH2 0x98A SWAP2 SWAP1 PUSH2 0x104C JUMP JUMPDEST PUSH1 0x40 DUP1 MLOAD SWAP2 DUP3 MSTORE PUSH1 0x20 DUP3 ADD DUP7 SWAP1 MSTORE ADD PUSH1 0x40 MLOAD DUP1 SWAP2 SUB SWAP1 LOG2 POP POP POP POP POP JUMP JUMPDEST PUSH1 0x0 DUP2 MLOAD PUSH1 0x41 EQ PUSH2 0x9FB JUMPI PUSH1 0x40 MLOAD PUSH3 0x461BCD PUSH1 0xE5 SHL DUP2 MSTORE PUSH1 0x20 PUSH1 0x4 DUP3 ADD MSTORE PUSH1 0x18 PUSH1 0x24 DUP3 ADD MSTORE PUSH32 0x496E76616C6964207369676E6174757265206C656E6774680000000000000000 PUSH1 0x44 DUP3 ADD MSTORE PUSH1 0x64 ADD PUSH2 0x39F JUMP JUMPDEST PUSH1 0x20 DUP3 ADD MLOAD PUSH1 0x40 DUP4 ADD MLOAD PUSH1 0x60 DUP5 ADD MLOAD PUSH1 0x0 BYTE PUSH1 0x1B DUP2 LT ISZERO PUSH2 0xA24 JUMPI PUSH2 0xA21 PUSH1 0x1B DUP3 PUSH2 0x1093 JUMP JUMPDEST SWAP1 POP JUMPDEST PUSH1 0x40 DUP1 MLOAD PUSH1 0x0 DUP2 MSTORE PUSH1 0x20 DUP2 ADD DUP1 DUP4 MSTORE DUP9 SWAP1 MSTORE PUSH1 0xFF DUP4 AND SWAP2 DUP2 ADD SWAP2 SWAP1 SWAP2 MSTORE PUSH1 0x60 DUP2 ADD DUP5 SWAP1 MSTORE PUSH1 0x80 DUP2 ADD DUP4 SWAP1 MSTORE PUSH1 0x1 SWAP1 PUSH1 0xA0 ADD PUSH1 0x20 PUSH1 0x40 MLOAD PUSH1 0x20 DUP2 SUB SWAP1 DUP1 DUP5 SUB SWAP1 DUP6 GAS STATICCALL ISZERO DUP1 ISZERO PUSH2 0xA77 JUMPI RETURNDATASIZE PUSH1 0x0 DUP1 RETURNDATACOPY RETURNDATASIZE PUSH1 0x0 REVERT JUMPDEST POP POP POP PUSH1 0x20 PUSH1 0x40 MLOAD SUB MLOAD SWAP4 POP POP POP POP JUMPDEST SWAP3 SWAP2 POP POP JUMP JUMPDEST PUSH1 0x0 PUSH2 0xA9C PUSH1 0x20 DUP4 ADD DUP4 PUSH2 0xE00 JUMP JUMPDEST PUSH1 0x1 PUSH1 0x1 PUSH1 0xA0 SHL SUB AND SUB PUSH2 0xAC3 JUMPI PUSH1 0x40 MLOAD PUSH4 0xD92E233D PUSH1 0xE0 SHL DUP2 MSTORE PUSH1 0x4 ADD PUSH1 0x40 MLOAD DUP1 SWAP2 SUB SWAP1 REVERT JUMPDEST TIMESTAMP DUP2 PUSH1 0x40 ADD CALLDATALOAD GT PUSH2 0xB17 JUMPI PUSH1 0x40 MLOAD PUSH4 0x1A63E469 PUSH1 0xE2 SHL DUP2 MSTORE PUSH1 0x20 PUSH1 0x4 DUP3 ADD MSTORE PUSH1 0x1C PUSH1 0x24 DUP3 ADD MSTORE PUSH32 0x45787069726174696F6E206D75737420626520696E2066757475726500000000 PUSH1 0x44 DUP3 ADD MSTORE PUSH1 0x64 ADD PUSH2 0x39F JUMP JUMPDEST PUSH1 0x60 DUP2 ADD CALLDATALOAD ISZERO DUP1 PUSH2 0xB2A JUMPI POP PUSH1 0x80 DUP2 ADD CALLDATALOAD ISZERO JUMPDEST ISZERO PUSH2 0xB78 JUMPI PUSH1 0x40 MLOAD PUSH4 0x1A63E469 PUSH1 0xE2 SHL DUP2 MSTORE PUSH1 0x20 PUSH1 0x4 DUP3 ADD DUP2 SWAP1 MSTORE PUSH1 0x24 DUP3 ADD MSTORE PUSH32 0x4C696D697473206D7573742062652067726561746572207468616E207A65726F PUSH1 0x44 DUP3 ADD MSTORE PUSH1 0x64 ADD PUSH2 0x39F JUMP JUMPDEST DUP1 PUSH1 0x80 ADD CALLDATALOAD DUP2 PUSH1 0x60 ADD CALLDATALOAD GT ISZERO PUSH2 0xBEB JUMPI PUSH1 0x40 MLOAD PUSH4 0x1A63E469 PUSH1 0xE2 SHL DUP2 MSTORE PUSH1 0x20 PUSH1 0x4 DUP3 ADD MSTORE PUSH1 0x31 PUSH1 0x24 DUP3 ADD MSTORE PUSH32 0x5065722D7472616E73616374696F6E206C696D69742063616E6E6F7420657863 PUSH1 0x44 DUP3 ADD MSTORE PUSH17 0x195959081B5BDB9D1A1B1E481B1A5B5A5D PUSH1 0x7A SHL PUSH1 0x64 DUP3 ADD MSTORE PUSH1 0x84 ADD PUSH2 0x39F JUMP JUMPDEST PUSH1 0x40 DUP1 MLOAD PUSH2 0x100 DUP2 ADD SWAP1 SWAP2 MSTORE DUP1 PUSH2 0xC05 PUSH1 0x20 DUP5 ADD DUP5 PUSH2 0xE00 JUMP JUMPDEST PUSH1 0x1 PUSH1 0x1 PUSH1 0xA0 SHL SUB AND DUP2 MSTORE PUSH1 0x20 ADD DUP3 PUSH1 0x20 ADD CALLDATALOAD DUP2 MSTORE PUSH1 0x20 ADD DUP3 PUSH1 0x40 ADD CALLDATALOAD DUP2 MSTORE PUSH1 0x20 ADD DUP3 PUSH1 0x60 ADD CALLDATALOAD DUP2 MSTORE PUSH1 0x20 ADD DUP3 PUSH1 0x80 ADD CALLDATALOAD DUP2 MSTORE PUSH1 0x20 ADD PUSH1 0x1 ISZERO ISZERO DUP2 MSTORE PUSH1 0x20 ADD TIMESTAMP DUP2 MSTORE PUSH1 0x20 ADD DUP3 DUP1 PUSH1 0xE0 ADD SWAP1 PUSH2 0xC5A SWAP2 SWAP1 PUSH2 0x10AC JUMP JUMPDEST DUP1 DUP1 PUSH1 0x1F ADD PUSH1 0x20 DUP1 SWAP2 DIV MUL PUSH1 0x20 ADD PUSH1 0x40 MLOAD SWAP1 DUP2 ADD PUSH1 0x40 MSTORE DUP1 SWAP4 SWAP3 SWAP2 SWAP1 DUP2 DUP2 MSTORE PUSH1 0x20 ADD DUP4 DUP4 DUP1 DUP3 DUP5 CALLDATACOPY PUSH1 0x0 SWAP3 ADD DUP3 SWAP1 MSTORE POP SWAP4 SWAP1 SWAP5 MSTORE POP POP PUSH1 0x1 PUSH1 0x1 PUSH1 0xA0 SHL SUB DUP6 DUP2 AND DUP3 MSTORE PUSH1 0x20 DUP3 DUP2 MSTORE PUSH1 0x40 SWAP3 DUP4 SWAP1 KECCAK256 DUP6 MLOAD DUP2 SLOAD PUSH1 0x1 PUSH1 0x1 PUSH1 0xA0 SHL SUB NOT AND SWAP4 AND SWAP3 SWAP1 SWAP3 OR DUP3 SSTORE DUP5 ADD MLOAD PUSH1 0x1 DUP3 ADD SSTORE SWAP1 DUP4 ADD MLOAD PUSH1 0x2 DUP3 ADD SSTORE PUSH1 0x60 DUP4 ADD MLOAD PUSH1 0x3 DUP3 ADD SSTORE PUSH1 0x80 DUP4 ADD MLOAD PUSH1 0x4 DUP3 ADD SSTORE PUSH1 0xA0 DUP4 ADD MLOAD PUSH1 0x5 DUP3 ADD DUP1 SLOAD PUSH1 0xFF NOT AND SWAP2 ISZERO ISZERO SWAP2 SWAP1 SWAP2 OR SWAP1 SSTORE PUSH1 0xC0 DUP4 ADD MLOAD PUSH1 0x6 DUP3 ADD SSTORE PUSH1 0xE0 DUP4 ADD MLOAD SWAP1 SWAP2 POP PUSH1 0x7 DUP3 ADD SWAP1 PUSH2 0xD1C SWAP1 DUP3 PUSH2 0x1161 JUMP JUMPDEST POP POP POP PUSH1 0x1 PUSH1 0x1 PUSH1 0xA0 SHL SUB DUP3 AND PUSH1 0x0 SWAP1 DUP2 MSTORE PUSH1 0x2 PUSH1 0x20 SWAP1 DUP2 MSTORE PUSH1 0x40 SWAP1 SWAP2 KECCAK256 TIMESTAMP SWAP1 SSTORE DUP2 ADD DUP1 CALLDATALOAD SWAP1 PUSH2 0xD4C SWAP1 DUP4 PUSH2 0xE00 JUMP JUMPDEST PUSH1 0x1 PUSH1 0x1 PUSH1 0xA0 SHL SUB AND DUP4 PUSH1 0x1 PUSH1 0x1 PUSH1 0xA0 SHL SUB AND PUSH32 0xB94CA423709A351F789A9C764A370660ED8C52E6E0607AEB0A7A0169518500C3 DUP5 PUSH1 0x40 ADD CALLDATALOAD PUSH1 0x40 MLOAD PUSH2 0xD94 SWAP2 DUP2 MSTORE PUSH1 0x20 ADD SWAP1 JUMP JUMPDEST PUSH1 0x40 MLOAD DUP1 SWAP2 SUB SWAP1 LOG4 POP POP JUMP JUMPDEST DUP1 CALLDATALOAD PUSH1 0x1 PUSH1 0x1 PUSH1 0xA0 SHL SUB DUP2 AND DUP2 EQ PUSH2 0xDB7 JUMPI PUSH1 0x0 DUP1 REVERT JUMPDEST SWAP2 SWAP1 POP JUMP JUMPDEST PUSH1 0x0 DUP1 PUSH1 0x0 PUSH1 0x60 DUP5 DUP7 SUB SLT ISZERO PUSH2 0xDD1 JUMPI PUSH1 0x0 DUP1 REVERT JUMPDEST PUSH2 0xDDA DUP5 PUSH2 0xDA0 JUMP JUMPDEST SWAP3 POP PUSH1 0x20 DUP5 ADD CALLDATALOAD SWAP2 POP PUSH1 0x40 DUP5 ADD CALLDATALOAD PUSH1 0x4 DUP2 LT PUSH2 0xDF5 JUMPI PUSH1 0x0 DUP1 REVERT JUMPDEST DUP1 SWAP2 POP POP SWAP3 POP SWAP3 POP SWAP3 JUMP JUMPDEST PUSH1 0x0 PUSH1 0x20 DUP3 DUP5 SUB SLT ISZERO PUSH2 0xE12 JUMPI PUSH1 0x0 DUP1 REVERT JUMPDEST PUSH2 0xE1B DUP3 PUSH2 0xDA0 JUMP JUMPDEST SWAP4 SWAP3 POP POP POP JUMP JUMPDEST PUSH1 0x0 PUSH2 0x100 DUP3 DUP5 SUB SLT ISZERO PUSH2 0xE35 JUMPI PUSH1 0x0 DUP1 REVERT JUMPDEST POP SWAP2 SWAP1 POP JUMP JUMPDEST PUSH1 0x0 DUP1 PUSH1 0x0 DUP1 PUSH1 0x60 DUP6 DUP8 SUB SLT ISZERO PUSH2 0xE51 JUMPI PUSH1 0x0 DUP1 REVERT JUMPDEST PUSH2 0xE5A DUP6 PUSH2 0xDA0 JUMP JUMPDEST SWAP4 POP PUSH1 0x20 DUP6 ADD CALLDATALOAD PUSH8 0xFFFFFFFFFFFFFFFF DUP1 DUP3 GT ISZERO PUSH2 0xE77 JUMPI PUSH1 0x0 DUP1 REVERT JUMPDEST PUSH2 0xE83 DUP9 DUP4 DUP10 ADD PUSH2 0xE22 JUMP JUMPDEST SWAP5 POP PUSH1 0x40 DUP8 ADD CALLDATALOAD SWAP2 POP DUP1 DUP3 GT ISZERO PUSH2 0xE99 JUMPI PUSH1 0x0 DUP1 REVERT JUMPDEST DUP2 DUP8 ADD SWAP2 POP DUP8 PUSH1 0x1F DUP4 ADD SLT PUSH2 0xEAD JUMPI PUSH1 0x0 DUP1 REVERT JUMPDEST DUP2 CALLDATALOAD DUP2 DUP2 GT ISZERO PUSH2 0xEBC JUMPI PUSH1 0x0 DUP1 REVERT JUMPDEST DUP9 PUSH1 0x20 DUP3 DUP6 ADD ADD GT ISZERO PUSH2 0xECE JUMPI PUSH1 0x0 DUP1 REVERT JUMPDEST SWAP6 SWAP9 SWAP5 SWAP8 POP POP PUSH1 0x20 ADD SWAP5 POP POP POP JUMP JUMPDEST PUSH1 0x0 DUP1 PUSH1 0x40 DUP4 DUP6 SUB SLT ISZERO PUSH2 0xEF0 JUMPI PUSH1 0x0 DUP1 REVERT JUMPDEST PUSH2 0xEF9 DUP4 PUSH2 0xDA0 JUMP JUMPDEST SWAP5 PUSH1 0x20 SWAP4 SWAP1 SWAP4 ADD CALLDATALOAD SWAP4 POP POP POP JUMP JUMPDEST PUSH1 0x0 PUSH1 0x20 DUP3 DUP5 SUB SLT ISZERO PUSH2 0xF19 JUMPI PUSH1 0x0 DUP1 REVERT JUMPDEST DUP2 CALLDATALOAD PUSH8 0xFFFFFFFFFFFFFFFF DUP2 GT ISZERO PUSH2 0xF30 JUMPI PUSH1 0x0 DUP1 REVERT JUMPDEST PUSH2 0xF3C DUP5 DUP3 DUP6 ADD PUSH2 0xE22 JUMP JUMPDEST SWAP5 SWAP4 POP POP POP POP JUMP JUMPDEST PUSH1 0x0 PUSH2 0x100 PUSH1 0x1 DUP1 PUSH1 0xA0 SHL SUB DUP12 AND DUP4 MSTORE PUSH1 0x20 DUP11 PUSH1 0x20 DUP6 ADD MSTORE DUP10 PUSH1 0x40 DUP6 ADD MSTORE DUP9 PUSH1 0x60 DUP6 ADD MSTORE DUP8 PUSH1 0x80 DUP6 ADD MSTORE DUP7 ISZERO ISZERO PUSH1 0xA0 DUP6 ADD MSTORE DUP6 PUSH1 0xC0 DUP6 ADD MSTORE DUP2 PUSH1 0xE0 DUP6 ADD MSTORE DUP5 MLOAD DUP1 DUP4 DUP7 ADD MSTORE PUSH1 0x0 SWAP3 POP JUMPDEST DUP1 DUP4 LT ISZERO PUSH2 0xFAD JUMPI DUP6 DUP4 ADD DUP3 ADD MLOAD DUP6 DUP5 ADD PUSH2 0x120 ADD MSTORE SWAP2 DUP2 ADD SWAP2 PUSH2 0xF8E JUMP JUMPDEST PUSH2 0x120 SWAP3 POP PUSH1 0x0 DUP4 DUP3 DUP8 ADD ADD MSTORE DUP3 PUSH1 0x1F NOT PUSH1 0x1F DUP4 ADD AND DUP7 ADD ADD SWAP4 POP POP POP POP SWAP10 SWAP9 POP POP POP POP POP POP POP POP POP JUMP JUMPDEST DUP3 DUP2 MSTORE PUSH1 0x40 DUP2 ADD PUSH1 0x4 DUP4 LT PUSH2 0xFFD JUMPI PUSH4 0x4E487B71 PUSH1 0xE0 SHL PUSH1 0x0 MSTORE PUSH1 0x21 PUSH1 0x4 MSTORE PUSH1 0x24 PUSH1 0x0 REVERT JUMPDEST DUP3 PUSH1 0x20 DUP4 ADD MSTORE SWAP4 SWAP3 POP POP POP JUMP JUMPDEST PUSH4 0x4E487B71 PUSH1 0xE0 SHL PUSH1 0x0 MSTORE PUSH1 0x11 PUSH1 0x4 MSTORE PUSH1 0x24 PUSH1 0x0 REVERT JUMPDEST PUSH1 0x0 PUSH1 0x1 DUP3 ADD PUSH2 0x1032 JUMPI PUSH2 0x1032 PUSH2 0x100A JUMP JUMPDEST POP PUSH1 0x1 ADD SWAP1 JUMP JUMPDEST DUP1 DUP3 ADD DUP1 DUP3 GT ISZERO PUSH2 0xA87 JUMPI PUSH2 0xA87 PUSH2 0x100A JUMP JUMPDEST DUP2 DUP2 SUB DUP2 DUP2 GT ISZERO PUSH2 0xA87 JUMPI PUSH2 0xA87 PUSH2 0x100A JUMP JUMPDEST PUSH1 0x1 DUP2 DUP2 SHR SWAP1 DUP3 AND DUP1 PUSH2 0x1073 JUMPI PUSH1 0x7F DUP3 AND SWAP2 POP JUMPDEST PUSH1 0x20 DUP3 LT DUP2 SUB PUSH2 0xE35 JUMPI PUSH4 0x4E487B71 PUSH1 0xE0 SHL PUSH1 0x0 MSTORE PUSH1 0x22 PUSH1 0x4 MSTORE PUSH1 0x24 PUSH1 0x0 REVERT JUMPDEST PUSH1 0xFF DUP2 DUP2 AND DUP4 DUP3 AND ADD SWAP1 DUP2 GT ISZERO PUSH2 0xA87 JUMPI PUSH2 0xA87 PUSH2 0x100A JUMP JUMPDEST PUSH1 0x0 DUP1 DUP4 CALLDATALOAD PUSH1 0x1E NOT DUP5 CALLDATASIZE SUB ADD DUP2 SLT PUSH2 0x10C3 JUMPI PUSH1 0x0 DUP1 REVERT JUMPDEST DUP4 ADD DUP1 CALLDATALOAD SWAP2 POP PUSH8 0xFFFFFFFFFFFFFFFF DUP3 GT ISZERO PUSH2 0x10DE JUMPI PUSH1 0x0 DUP1 REVERT JUMPDEST PUSH1 0x20 ADD SWAP2 POP CALLDATASIZE DUP2 SWAP1 SUB DUP3 SGT ISZERO PUSH2 0x10F3 JUMPI PUSH1 0x0 DUP1 REVERT JUMPDEST SWAP3 POP SWAP3 SWAP1 POP JUMP JUMPDEST PUSH4 0x4E487B71 PUSH1 0xE0 SHL PUSH1 0x0 MSTORE PUSH1 0x41 PUSH1 0x4 MSTORE PUSH1 0x24 PUSH1 0x0 REVERT JUMPDEST PUSH1 0x1F DUP3 GT ISZERO PUSH2 0x115C JUMPI PUSH1 0x0 DUP2 PUSH1 0x0 MSTORE PUSH1 0x20 PUSH1 0x0 KECCAK256 PUSH1 0x1F DUP6 ADD PUSH1 0x5 SHR DUP2 ADD PUSH1 0x20 DUP7 LT ISZERO PUSH2 0x1139 JUMPI POP DUP1 JUMPDEST PUSH1 0x1F DUP6 ADD PUSH1 0x5 SHR DUP3 ADD SWAP2 POP JUMPDEST DUP2 DUP2 LT ISZERO PUSH2 0x1158 JUMPI DUP3 DUP2 SSTORE PUSH1 0x1 ADD PUSH2 0x1145 JUMP JUMPDEST POP POP POP JUMPDEST POP POP POP JUMP JUMPDEST DUP2 MLOAD PUSH8 0xFFFFFFFFFFFFFFFF DUP2 GT ISZERO PUSH2 0x117B JUMPI PUSH2 0x117B PUSH2 0x10FA JUMP JUMPDEST PUSH2 0x118F DUP2 PUSH2 0x1189 DUP5 SLOAD PUSH2 0x105F JUMP JUMPDEST DUP5 PUSH2 0x1110 JUMP JUMPDEST PUSH1 0x20 DUP1 PUSH1 0x1F DUP4 GT PUSH1 0x1 DUP2 EQ PUSH2 0x11C4 JUMPI PUSH1 0x0 DUP5 ISZERO PUSH2 0x11AC JUMPI POP DUP6 DUP4 ADD MLOAD JUMPDEST PUSH1 0x0 NOT PUSH1 0x3 DUP7 SWAP1 SHL SHR NOT AND PUSH1 0x1 DUP6 SWAP1 SHL OR DUP6 SSTORE PUSH2 0x1158 JUMP JUMPDEST PUSH1 0x0 DUP6 DUP2 MSTORE PUSH1 0x20 DUP2 KECCAK256 PUSH1 0x1F NOT DUP7 AND SWAP2 JUMPDEST DUP3 DUP2 LT ISZERO PUSH2 0x11F3 JUMPI DUP9 DUP7 ADD MLOAD DUP3 SSTORE SWAP5 DUP5 ADD SWAP5 PUSH1 0x1 SWAP1 SWAP2 ADD SWAP1 DUP5 ADD PUSH2 0x11D4 JUMP JUMPDEST POP DUP6 DUP3 LT ISZERO PUSH2 0x1211 JUMPI DUP8 DUP6 ADD MLOAD PUSH1 0x0 NOT PUSH1 0x3 DUP9 SWAP1 SHL PUSH1 0xF8 AND SHR NOT AND DUP2 SSTORE JUMPDEST POP POP POP POP POP PUSH1 0x1 SWAP1 DUP2 SHL ADD SWAP1 SSTORE POP JUMP INVALID LOG2 PUSH5 0x6970667358 0x22 SLT KECCAK256 NUMBER 0xBE 0xD 0xAF SWAP14 0xE1 0xE1 EXTCODEHASH SWAP10 CALLCODE 0xEA 0xAC DUP16 LOG3 0xE BALANCE 0xA5 JUMPDEST SHL 0x23 REVERT 0xC7 0xC7 0xBB 0xEE EXP PUSH17 0x596324FFB664736F6C6343000818003300 "},"methodIdentifiers":{"DOMAIN_SEPARATOR()":"3644e515","createDelegation((address,bytes32,uint256,uint256,uint256,bool,uint256,bytes))":"9fef9656","createDelegationWithSignature(address,(address,bytes32,uint256,uint256,uint256,bool,uint256,bytes),bytes)":"3a54bc77","currentMonthStart(address)":"26f0e02c","delegations(address)":"bffe3486","getRemainingMonthlyLimit(address)":"6c47a99e","hasActiveDelegation(address)":"3163827e","monthlyUsage(address,uint256)":"6fe36824","nonces(address)":"7ecebe00","owner()":"8da5cb5b","revokeDelegation()":"a4d31805","setTaxeeManager(address)":"a75742b7","taxeeManager()":"e175b452","validateAndRecordUsage(address,uint256,uint8)":"0a0a97c6"}}}}}