{
  "_format": "hh-sol-artifact-1",
  "contractName": "TaxeeLotRegistry",
  "sourceName": "src/TaxeeLotRegistry.sol",
  "abi": [
    {
      "inputs": [],
      "name": "InvalidHash",
      "type": "error"
    },
    {
      "inputs": [
        {
          "internalType": "bytes32",
          "name": "lotId",
          "type": "bytes32"
        }
      ],
      "name": "LotAlreadyCommitted",
      "type": "error"
    },
    {
      "inputs": [],
      "name": "ZeroAgent",
      "type": "error"
    },
    {
      "anonymous": false,
      "inputs": [
        {
          "indexed": true,
          "internalType": "address",
          "name": "agent",
          "type": "address"
        },
        {
          "indexed": true,
          "internalType": "bytes32",
          "name": "lotId",
          "type": "bytes32"
        },
        {
          "indexed": true,
          "internalType": "bytes32",
          "name": "dataHash",
          "type": "bytes32"
        },
        {
          "indexed": false,
          "internalType": "uint256",
          "name": "timestamp",
          "type": "uint256"
        }
      ],
      "name": "LotDisposed",
      "type": "event"
    },
    {
      "inputs": [
        {
          "internalType": "bytes32",
          "name": "lotId",
          "type": "bytes32"
        },
        {
          "internalType": "bytes32",
          "name": "dataHash",
          "type": "bytes32"
        }
      ],
      "name": "commitDisposal",
      "outputs": [],
      "stateMutability": "nonpayable",
      "type": "function"
    },
    {
      "inputs": [
        {
          "internalType": "bytes32[]",
          "name": "lotIds",
          "type": "bytes32[]"
        },
        {
          "internalType": "bytes32[]",
          "name": "dataHashes",
          "type": "bytes32[]"
        }
      ],
      "name": "commitDisposalBatch",
      "outputs": [],
      "stateMutability": "nonpayable",
      "type": "function"
    },
    {
      "inputs": [
        {
          "internalType": "bytes32",
          "name": "lotId",
          "type": "bytes32"
        }
      ],
      "name": "getCommitment",
      "outputs": [
        {
          "internalType": "bytes32",
          "name": "dataHash",
          "type": "bytes32"
        },
        {
          "internalType": "address",
          "name": "agent",
          "type": "address"
        },
        {
          "internalType": "uint256",
          "name": "blockNumber",
          "type": "uint256"
        },
        {
          "internalType": "bool",
          "name": "exists",
          "type": "bool"
        }
      ],
      "stateMutability": "view",
      "type": "function"
    },
    {
      "inputs": [
        {
          "internalType": "bytes32",
          "name": "lotId",
          "type": "bytes32"
        }
      ],
      "name": "isCommitted",
      "outputs": [
        {
          "internalType": "bool",
          "name": "",
          "type": "bool"
        }
      ],
      "stateMutability": "view",
      "type": "function"
    },
    {
      "inputs": [
        {
          "internalType": "bytes32",
          "name": "",
          "type": "bytes32"
        }
      ],
      "name": "lotAgents",
      "outputs": [
        {
          "internalType": "address",
          "name": "",
          "type": "address"
        }
      ],
      "stateMutability": "view",
      "type": "function"
    },
    {
      "inputs": [
        {
          "internalType": "bytes32",
          "name": "",
          "type": "bytes32"
        }
      ],
      "name": "lotBlocks",
      "outputs": [
        {
          "internalType": "uint256",
          "name": "",
          "type": "uint256"
        }
      ],
      "stateMutability": "view",
      "type": "function"
    },
    {
      "inputs": [
        {
          "internalType": "bytes32",
          "name": "",
          "type": "bytes32"
        }
      ],
      "name": "lotHashes",
      "outputs": [
        {
          "internalType": "bytes32",
          "name": "",
          "type": "bytes32"
        }
      ],
      "stateMutability": "view",
      "type": "function"
    },
    {
      "inputs": [],
      "name": "totalDisposals",
      "outputs": [
        {
          "internalType": "uint256",
          "name": "",
          "type": "uint256"
        }
      ],
      "stateMutability": "view",
      "type": "function"
    },
    {
      "inputs": [
        {
          "internalType": "bytes32",
          "name": "lotId",
          "type": "bytes32"
        },
        {
          "internalType": "bytes32",
          "name": "dataHash",
          "type": "bytes32"
        }
      ],
      "name": "verifyDisposal",
      "outputs": [
        {
          "internalType": "bool",
          "name": "valid",
          "type": "bool"
        }
      ],
      "stateMutability": "view",
      "type": "function"
    }
  ],
  "bytecode": "0x608060405234801561001057600080fd5b50610642806100206000396000f3fe608060405234801561001057600080fd5b50600436106100935760003560e01c80637795820c116100665780637795820c1461014757806381b65ed5146101b4578063886bd865146101c957806399ffd2f2146101dc578063bd0eecda146101ef57600080fd5b8063054765a3146100985780632850bd24146100cf5780633d87e11614610110578063533b7a3014610127575b600080fd5b6100ba6100a63660046104e2565b600090815260208190526040902054151590565b60405190151581526020015b60405180910390f35b6100f86100dd3660046104e2565b6001602052600090815260409020546001600160a01b031681565b6040516001600160a01b0390911681526020016100c6565b61011960035481565b6040519081526020016100c6565b6101196101353660046104e2565b60006020819052908152604090205481565b61018a6101553660046104e2565b600090815260208181526040808320546001835281842054600290935292205491926001600160a01b03909116919083151590565b604080519485526001600160a01b03909316602085015291830152151560608201526080016100c6565b6101c76101c23660046104fb565b61020f565b005b6100ba6101d73660046104fb565b610308565b6101c76101ea366004610569565b61033b565b6101196101fd3660046104e2565b60026020526000908152604090205481565b6000828152602081905260409020541561024457604051632b7828a560e21b8152600481018390526024015b60405180910390fd5b80610261576040516257c03760e51b815260040160405180910390fd5b3361027f576040516392077bad60e01b815260040160405180910390fd5b600082815260208181526040808320849055600180835281842080546001600160a01b031916331790556002909252822043905560038054919290916102c69084906105d5565b90915550506040514281528190839033907fe3d8e50f31703fe62297a87c8facf7c13bbac1bd9f8687c548408501ce9c0e0a9060200160405180910390a45050565b60008281526020819052604081205415801590610332575060008381526020819052604090205482145b90505b92915050565b82811461037c5760405162461bcd60e51b815260206004820152600f60248201526e098cadccee8d040dad2e6dac2e8c6d608b1b604482015260640161023b565b826103b75760405162461bcd60e51b815260206004820152600b60248201526a08adae0e8f240c4c2e8c6d60ab1b604482015260640161023b565b60005b838110156104c15760008585838181106103d6576103d66105f6565b90506020020135905060008484848181106103f3576103f36105f6565b60008581526020818152604090912054910292909201359250501561042e57604051632b7828a560e21b81526004810183905260240161023b565b8061044b576040516257c03760e51b815260040160405180910390fd5b6000828152602081815260408083208490556001825280832080546001600160a01b031916339081179091556002835292819020439055514281528392859290917fe3d8e50f31703fe62297a87c8facf7c13bbac1bd9f8687c548408501ce9c0e0a910160405180910390a450506001016103ba565b5083839050600360008282546104d791906105d5565b909155505050505050565b6000602082840312156104f457600080fd5b5035919050565b6000806040838503121561050e57600080fd5b50508035926020909101359150565b60008083601f84011261052f57600080fd5b50813567ffffffffffffffff81111561054757600080fd5b6020830191508360208260051b850101111561056257600080fd5b9250929050565b6000806000806040858703121561057f57600080fd5b843567ffffffffffffffff8082111561059757600080fd5b6105a38883890161051d565b909650945060208701359150808211156105bc57600080fd5b506105c98782880161051d565b95989497509550505050565b8082018082111561033557634e487b7160e01b600052601160045260246000fd5b634e487b7160e01b600052603260045260246000fdfea264697066735822122004978bac8bd7f8d8b432f8a0364488b674b9584faeb4ef07398970b950801f0564736f6c63430008180033",
  "linkReferences": {},
  "deployedLinkReferences": {}
}