{
  "_format": "hh-sol-artifact-1",
  "contractName": "TaxeeExecutor",
  "sourceName": "contracts/src/TaxeeExecutor.sol",
  "abi": [
    {
      "inputs": [
        {
          "internalType": "address",
          "name": "_usyc",
          "type": "address"
        },
        {
          "internalType": "address",
          "name": "_usdc",
          "type": "address"
        },
        {
          "internalType": "address",
          "name": "_registry",
          "type": "address"
        },
        {
          "internalType": "address",
          "name": "_authorizedCaller",
          "type": "address"
        }
      ],
      "stateMutability": "nonpayable",
      "type": "constructor"
    },
    {
      "inputs": [
        {
          "internalType": "uint256",
          "name": "required",
          "type": "uint256"
        },
        {
          "internalType": "uint256",
          "name": "actual",
          "type": "uint256"
        }
      ],
      "name": "InsufficientAllowance",
      "type": "error"
    },
    {
      "inputs": [
        {
          "internalType": "bytes32",
          "name": "lotId",
          "type": "bytes32"
        },
        {
          "internalType": "uint256",
          "name": "requested",
          "type": "uint256"
        },
        {
          "internalType": "uint256",
          "name": "available",
          "type": "uint256"
        }
      ],
      "name": "InsufficientShares",
      "type": "error"
    },
    {
      "inputs": [
        {
          "internalType": "bytes32",
          "name": "lotId",
          "type": "bytes32"
        }
      ],
      "name": "NoSharesParked",
      "type": "error"
    },
    {
      "inputs": [],
      "name": "Unauthorized",
      "type": "error"
    },
    {
      "inputs": [],
      "name": "ZeroAmount",
      "type": "error"
    },
    {
      "anonymous": false,
      "inputs": [
        {
          "indexed": true,
          "internalType": "address",
          "name": "agent",
          "type": "address"
        },
        {
          "indexed": true,
          "internalType": "bytes32",
          "name": "lotId",
          "type": "bytes32"
        },
        {
          "indexed": false,
          "internalType": "uint256",
          "name": "usdcAmount",
          "type": "uint256"
        },
        {
          "indexed": false,
          "internalType": "uint256",
          "name": "usycShares",
          "type": "uint256"
        },
        {
          "indexed": false,
          "internalType": "uint256",
          "name": "timestamp",
          "type": "uint256"
        }
      ],
      "name": "ParkedInUsyc",
      "type": "event"
    },
    {
      "anonymous": false,
      "inputs": [
        {
          "indexed": true,
          "internalType": "address",
          "name": "agent",
          "type": "address"
        },
        {
          "indexed": true,
          "internalType": "bytes32",
          "name": "lotId",
          "type": "bytes32"
        },
        {
          "indexed": false,
          "internalType": "uint256",
          "name": "usycShares",
          "type": "uint256"
        },
        {
          "indexed": false,
          "internalType": "uint256",
          "name": "usdcAmount",
          "type": "uint256"
        },
        {
          "indexed": false,
          "internalType": "uint256",
          "name": "timestamp",
          "type": "uint256"
        }
      ],
      "name": "RedeemedFromUsyc",
      "type": "event"
    },
    {
      "inputs": [],
      "name": "authorizedCaller",
      "outputs": [
        {
          "internalType": "address",
          "name": "",
          "type": "address"
        }
      ],
      "stateMutability": "view",
      "type": "function"
    },
    {
      "inputs": [
        {
          "internalType": "bytes32",
          "name": "lotId",
          "type": "bytes32"
        }
      ],
      "name": "getParkedShares",
      "outputs": [
        {
          "internalType": "uint256",
          "name": "",
          "type": "uint256"
        }
      ],
      "stateMutability": "view",
      "type": "function"
    },
    {
      "inputs": [
        {
          "internalType": "uint256",
          "name": "usdcAmount",
          "type": "uint256"
        },
        {
          "internalType": "bytes32",
          "name": "lotId",
          "type": "bytes32"
        },
        {
          "internalType": "address",
          "name": "agentAddr",
          "type": "address"
        }
      ],
      "name": "parkInUsyc",
      "outputs": [
        {
          "internalType": "uint256",
          "name": "shares",
          "type": "uint256"
        }
      ],
      "stateMutability": "nonpayable",
      "type": "function"
    },
    {
      "inputs": [
        {
          "internalType": "bytes32",
          "name": "",
          "type": "bytes32"
        }
      ],
      "name": "parkedBy",
      "outputs": [
        {
          "internalType": "address",
          "name": "",
          "type": "address"
        }
      ],
      "stateMutability": "view",
      "type": "function"
    },
    {
      "inputs": [
        {
          "internalType": "bytes32",
          "name": "",
          "type": "bytes32"
        }
      ],
      "name": "parkedShares",
      "outputs": [
        {
          "internalType": "uint256",
          "name": "",
          "type": "uint256"
        }
      ],
      "stateMutability": "view",
      "type": "function"
    },
    {
      "inputs": [
        {
          "internalType": "bytes32",
          "name": "lotId",
          "type": "bytes32"
        }
      ],
      "name": "previewParkedValue",
      "outputs": [
        {
          "internalType": "uint256",
          "name": "usdcValue",
          "type": "uint256"
        }
      ],
      "stateMutability": "view",
      "type": "function"
    },
    {
      "inputs": [
        {
          "internalType": "bytes32",
          "name": "lotId",
          "type": "bytes32"
        },
        {
          "internalType": "address",
          "name": "recipient",
          "type": "address"
        }
      ],
      "name": "redeemAllForLot",
      "outputs": [
        {
          "internalType": "uint256",
          "name": "usdcAmount",
          "type": "uint256"
        }
      ],
      "stateMutability": "nonpayable",
      "type": "function"
    },
    {
      "inputs": [
        {
          "internalType": "uint256",
          "name": "shares",
          "type": "uint256"
        },
        {
          "internalType": "bytes32",
          "name": "lotId",
          "type": "bytes32"
        },
        {
          "internalType": "address",
          "name": "recipient",
          "type": "address"
        }
      ],
      "name": "redeemFromUsyc",
      "outputs": [
        {
          "internalType": "uint256",
          "name": "usdcAmount",
          "type": "uint256"
        }
      ],
      "stateMutability": "nonpayable",
      "type": "function"
    },
    {
      "inputs": [],
      "name": "registry",
      "outputs": [
        {
          "internalType": "contract TaxeeLotRegistry",
          "name": "",
          "type": "address"
        }
      ],
      "stateMutability": "view",
      "type": "function"
    },
    {
      "inputs": [],
      "name": "usdc",
      "outputs": [
        {
          "internalType": "contract IERC20",
          "name": "",
          "type": "address"
        }
      ],
      "stateMutability": "view",
      "type": "function"
    },
    {
      "inputs": [],
      "name": "usyc",
      "outputs": [
        {
          "internalType": "contract IUsyc",
          "name": "",
          "type": "address"
        }
      ],
      "stateMutability": "view",
      "type": "function"
    }
  ],
  "bytecode": "0x61010060405234801561001157600080fd5b5060405162000dc938038062000dc983398101604081905261003291610183565b6001600160a01b0384166100795760405162461bcd60e51b81526020600482015260096024820152685a65726f205553594360b81b60448201526064015b60405180910390fd5b6001600160a01b0383166100bb5760405162461bcd60e51b81526020600482015260096024820152685a65726f205553444360b81b6044820152606401610070565b6001600160a01b0382166101015760405162461bcd60e51b815260206004820152600d60248201526c5a65726f20726567697374727960981b6044820152606401610070565b6001600160a01b0381166101455760405162461bcd60e51b815260206004820152600b60248201526a2d32b9379031b0b63632b960a91b6044820152606401610070565b6001600160a01b0393841660805291831660a052821660c0521660e0526101d7565b80516001600160a01b038116811461017e57600080fd5b919050565b6000806000806080858703121561019957600080fd5b6101a285610167565b93506101b060208601610167565b92506101be60408601610167565b91506101cc60608601610167565b905092959194509250565b60805160a05160c05160e051610b6b6200025e600039600081816101ae015281816102e6015281816104fb01526106890152600061015e01526000818161010c01528181610705015281816107c701526108830152600081816102080152818161025f0152818161041a015281816105a801528181610854015261090d0152610b6b6000f3fe608060405234801561001057600080fd5b50600436106100a95760003560e01c80637b103999116100715780637b103999146101595780637c1007dd1461018057806397dc97cb146101a9578063a7ee2114146101d0578063bcb20dc0146101f0578063c166beb61461020357600080fd5b80630485152d146100ae57806306d9d8db146100d4578063162d92d6146100f45780633e413bee146101075780637a0d1f6314610146575b600080fd5b6100c16100bc366004610a22565b61022a565b6040519081526020015b60405180910390f35b6100c16100e2366004610a22565b60006020819052908152604090205481565b6100c1610102366004610a57565b6102d9565b61012e7f000000000000000000000000000000000000000000000000000000000000000081565b6040516001600160a01b0390911681526020016100cb565b6100c1610154366004610a8c565b6104ee565b61012e7f000000000000000000000000000000000000000000000000000000000000000081565b61012e61018e366004610a22565b6001602052600090815260409020546001600160a01b031681565b61012e7f000000000000000000000000000000000000000000000000000000000000000081565b6100c16101de366004610a22565b60009081526020819052604090205490565b6100c16101fe366004610a57565b61067c565b61012e7f000000000000000000000000000000000000000000000000000000000000000081565b6000818152602081905260408120548082036102495750600092915050565b60405163266d6a8360e11b8152600481018290527f00000000000000000000000000000000000000000000000000000000000000006001600160a01b031690634cdad50690602401602060405180830381865afa1580156102ae573d6000803e3d6000fd5b505050506040513d601f19601f820116820180604052508101906102d29190610ab8565b9392505050565b6000336001600160a01b037f00000000000000000000000000000000000000000000000000000000000000001614610323576040516282b42960e81b815260040160405180910390fd5b8360000361034457604051631f2a200560e01b815260040160405180910390fd5b600083815260208190526040812054900361037a5760405163a350e5ff60e01b8152600481018490526024015b60405180910390fd5b6000838152602081905260409020548411156103cb5760008381526020819052604090819020549051633ec98f7f60e21b815260048101859052602481018690526044810191909152606401610371565b600083815260208190526040812080548692906103e9908490610ae7565b9091555050604051635d043b2960e11b8152600481018590526001600160a01b0383811660248301523060448301527f0000000000000000000000000000000000000000000000000000000000000000169063ba087652906064016020604051808303816000875af1158015610463573d6000803e3d6000fd5b505050506040513d601f19601f820116820180604052508101906104879190610ab8565b6000848152600160209081526040918290205482518881529182018490524282840152915192935085926001600160a01b03909216917f80ffafe0c3f7cfa0962bf2b452a16c21e1ad523a3bbe0e554cc2b8e915e414679181900360600190a39392505050565b6000336001600160a01b037f00000000000000000000000000000000000000000000000000000000000000001614610538576040516282b42960e81b815260040160405180910390fd5b6000838152602081905260408120549081900361056b5760405163a350e5ff60e01b815260048101859052602401610371565b6000848152602081905260408082209190915551635d043b2960e11b8152600481018290526001600160a01b0384811660248301523060448301527f0000000000000000000000000000000000000000000000000000000000000000169063ba087652906064016020604051808303816000875af11580156105f1573d6000803e3d6000fd5b505050506040513d601f19601f820116820180604052508101906106159190610ab8565b6000858152600160209081526040918290205482518581529182018490524282840152915192945086926001600160a01b03909216917f80ffafe0c3f7cfa0962bf2b452a16c21e1ad523a3bbe0e554cc2b8e915e414679181900360600190a35092915050565b6000336001600160a01b037f000000000000000000000000000000000000000000000000000000000000000016146106c6576040516282b42960e81b815260040160405180910390fd5b836000036106e757604051631f2a200560e01b815260040160405180910390fd5b604051636eb1769f60e11b81523360048201523060248201526000907f00000000000000000000000000000000000000000000000000000000000000006001600160a01b03169063dd62ed3e90604401602060405180830381865afa158015610754573d6000803e3d6000fd5b505050506040513d601f19601f820116820180604052508101906107789190610ab8565b9050848110156107a55760405163054365bb60e31b81526004810186905260248101829052604401610371565b6040516323b872dd60e01b8152336004820152306024820152604481018690527f00000000000000000000000000000000000000000000000000000000000000006001600160a01b0316906323b872dd906064016020604051808303816000875af1158015610818573d6000803e3d6000fd5b505050506040513d601f19601f8201168201806040525081019061083c9190610b00565b5060405163095ea7b360e01b81526001600160a01b037f000000000000000000000000000000000000000000000000000000000000000081166004830152602482018790527f0000000000000000000000000000000000000000000000000000000000000000169063095ea7b3906044016020604051808303816000875af11580156108cc573d6000803e3d6000fd5b505050506040513d601f19601f820116820180604052508101906108f09190610b00565b50604051636e553f6560e01b8152600481018690523060248201527f00000000000000000000000000000000000000000000000000000000000000006001600160a01b031690636e553f65906044016020604051808303816000875af115801561095e573d6000803e3d6000fd5b505050506040513d601f19601f820116820180604052508101906109829190610ab8565b91508160008086815260200190815260200160002060008282546109a69190610b22565b909155505060008481526001602090815260409182902080546001600160a01b0387166001600160a01b031990911681179091558251888152918201859052428284015291518692917fee76e371a0c4d1cd966d9acde68a15c40cfee31e68ae1443cde49ac90ad1ac5d919081900360600190a3509392505050565b600060208284031215610a3457600080fd5b5035919050565b80356001600160a01b0381168114610a5257600080fd5b919050565b600080600060608486031215610a6c57600080fd5b8335925060208401359150610a8360408501610a3b565b90509250925092565b60008060408385031215610a9f57600080fd5b82359150610aaf60208401610a3b565b90509250929050565b600060208284031215610aca57600080fd5b5051919050565b634e487b7160e01b600052601160045260246000fd5b81810381811115610afa57610afa610ad1565b92915050565b600060208284031215610b1257600080fd5b815180151581146102d257600080fd5b80820180821115610afa57610afa610ad156fea2646970667358221220fcd4e93408bc79b5bde677197619ec9fc0be42fb22eafac4efe55d02eccc284d64736f6c63430008180033",
  "linkReferences": {},
  "deployedLinkReferences": {}
}