{
  "_format": "hh-sol-artifact-1",
  "contractName": "TaxeeManager",
  "sourceName": "src/TaxeeManager.sol",
  "abi": [
    {
      "inputs": [
        {
          "internalType": "address",
          "name": "_delegationRegistry",
          "type": "address"
        }
      ],
      "stateMutability": "nonpayable",
      "type": "constructor"
    },
    {
      "inputs": [],
      "name": "AssetNotAllowed",
      "type": "error"
    },
    {
      "inputs": [],
      "name": "CooldownActive",
      "type": "error"
    },
    {
      "inputs": [
        {
          "internalType": "string",
          "name": "reason",
          "type": "string"
        }
      ],
      "name": "ExecutionFailed",
      "type": "error"
    },
    {
      "inputs": [],
      "name": "InvalidPolicy",
      "type": "error"
    },
    {
      "inputs": [],
      "name": "SlippageExceeded",
      "type": "error"
    },
    {
      "inputs": [],
      "name": "UnauthorizedAction",
      "type": "error"
    },
    {
      "anonymous": false,
      "inputs": [
        {
          "indexed": true,
          "internalType": "address",
          "name": "user",
          "type": "address"
        },
        {
          "indexed": true,
          "internalType": "bytes32",
          "name": "requestId",
          "type": "bytes32"
        },
        {
          "indexed": false,
          "internalType": "bytes32",
          "name": "txHash",
          "type": "bytes32"
        },
        {
          "indexed": false,
          "internalType": "uint256",
          "name": "actualValue",
          "type": "uint256"
        }
      ],
      "name": "ExecutionConfirmed",
      "type": "event"
    },
    {
      "anonymous": false,
      "inputs": [
        {
          "indexed": true,
          "internalType": "address",
          "name": "user",
          "type": "address"
        },
        {
          "indexed": true,
          "internalType": "bytes32",
          "name": "requestId",
          "type": "bytes32"
        },
        {
          "indexed": false,
          "internalType": "enum TaxeeTypes.ActionType",
          "name": "action",
          "type": "uint8"
        },
        {
          "indexed": false,
          "internalType": "uint256",
          "name": "estimatedValue",
          "type": "uint256"
        }
      ],
      "name": "ExecutionRequested",
      "type": "event"
    },
    {
      "anonymous": false,
      "inputs": [
        {
          "indexed": true,
          "internalType": "address",
          "name": "user",
          "type": "address"
        },
        {
          "indexed": true,
          "internalType": "address",
          "name": "asset",
          "type": "address"
        },
        {
          "indexed": false,
          "internalType": "uint256",
          "name": "amount",
          "type": "uint256"
        },
        {
          "indexed": false,
          "internalType": "uint256",
          "name": "proceeds",
          "type": "uint256"
        },
        {
          "indexed": false,
          "internalType": "uint256",
          "name": "lossRealized",
          "type": "uint256"
        },
        {
          "indexed": false,
          "internalType": "bytes32",
          "name": "txHash",
          "type": "bytes32"
        }
      ],
      "name": "HarvestExecuted",
      "type": "event"
    },
    {
      "anonymous": false,
      "inputs": [
        {
          "indexed": true,
          "internalType": "address",
          "name": "user",
          "type": "address"
        },
        {
          "indexed": false,
          "internalType": "string",
          "name": "reason",
          "type": "string"
        },
        {
          "indexed": false,
          "internalType": "uint256",
          "name": "timestamp",
          "type": "uint256"
        }
      ],
      "name": "OpportunitySkipped",
      "type": "event"
    },
    {
      "anonymous": false,
      "inputs": [
        {
          "indexed": true,
          "internalType": "address",
          "name": "user",
          "type": "address"
        },
        {
          "indexed": true,
          "internalType": "address",
          "name": "asset",
          "type": "address"
        },
        {
          "indexed": false,
          "internalType": "uint256",
          "name": "amount",
          "type": "uint256"
        },
        {
          "indexed": false,
          "internalType": "uint256",
          "name": "newBasis",
          "type": "uint256"
        },
        {
          "indexed": false,
          "internalType": "bytes32",
          "name": "txHash",
          "type": "bytes32"
        }
      ],
      "name": "RebuyExecuted",
      "type": "event"
    },
    {
      "anonymous": false,
      "inputs": [
        {
          "indexed": true,
          "internalType": "address",
          "name": "user",
          "type": "address"
        },
        {
          "indexed": true,
          "internalType": "address",
          "name": "fromAsset",
          "type": "address"
        },
        {
          "indexed": true,
          "internalType": "address",
          "name": "toAsset",
          "type": "address"
        },
        {
          "indexed": false,
          "internalType": "uint256",
          "name": "amount",
          "type": "uint256"
        },
        {
          "indexed": false,
          "internalType": "bytes32",
          "name": "txHash",
          "type": "bytes32"
        }
      ],
      "name": "YieldMoveExecuted",
      "type": "event"
    },
    {
      "inputs": [
        {
          "internalType": "address",
          "name": "",
          "type": "address"
        }
      ],
      "name": "allowedAssets",
      "outputs": [
        {
          "internalType": "bool",
          "name": "",
          "type": "bool"
        }
      ],
      "stateMutability": "view",
      "type": "function"
    },
    {
      "inputs": [
        {
          "internalType": "address",
          "name": "",
          "type": "address"
        }
      ],
      "name": "authorizedExecutors",
      "outputs": [
        {
          "internalType": "bool",
          "name": "",
          "type": "bool"
        }
      ],
      "stateMutability": "view",
      "type": "function"
    },
    {
      "inputs": [
        {
          "internalType": "address",
          "name": "user",
          "type": "address"
        },
        {
          "internalType": "enum TaxeeTypes.ActionType",
          "name": "action",
          "type": "uint8"
        },
        {
          "internalType": "address",
          "name": "asset",
          "type": "address"
        },
        {
          "internalType": "uint256",
          "name": "value",
          "type": "uint256"
        }
      ],
      "name": "canExecute",
      "outputs": [
        {
          "internalType": "bool",
          "name": "",
          "type": "bool"
        },
        {
          "internalType": "string",
          "name": "",
          "type": "string"
        }
      ],
      "stateMutability": "view",
      "type": "function"
    },
    {
      "inputs": [],
      "name": "circleRelayer",
      "outputs": [
        {
          "internalType": "address",
          "name": "",
          "type": "address"
        }
      ],
      "stateMutability": "view",
      "type": "function"
    },
    {
      "inputs": [
        {
          "internalType": "bytes32",
          "name": "requestId",
          "type": "bytes32"
        },
        {
          "internalType": "bytes32",
          "name": "txHash",
          "type": "bytes32"
        },
        {
          "internalType": "uint256",
          "name": "actualValue",
          "type": "uint256"
        },
        {
          "internalType": "bool",
          "name": "success",
          "type": "bool"
        }
      ],
      "name": "confirmExecution",
      "outputs": [],
      "stateMutability": "nonpayable",
      "type": "function"
    },
    {
      "inputs": [],
      "name": "delegationRegistry",
      "outputs": [
        {
          "internalType": "contract DelegationRegistry",
          "name": "",
          "type": "address"
        }
      ],
      "stateMutability": "view",
      "type": "function"
    },
    {
      "inputs": [
        {
          "internalType": "address",
          "name": "user",
          "type": "address"
        },
        {
          "internalType": "address",
          "name": "asset",
          "type": "address"
        },
        {
          "internalType": "uint256",
          "name": "amount",
          "type": "uint256"
        },
        {
          "internalType": "uint256",
          "name": "estimatedProceeds",
          "type": "uint256"
        },
        {
          "internalType": "string",
          "name": "lotId",
          "type": "string"
        }
      ],
      "name": "executeHarvest",
      "outputs": [
        {
          "internalType": "bytes32",
          "name": "requestId",
          "type": "bytes32"
        }
      ],
      "stateMutability": "nonpayable",
      "type": "function"
    },
    {
      "inputs": [
        {
          "internalType": "address",
          "name": "user",
          "type": "address"
        },
        {
          "internalType": "address",
          "name": "asset",
          "type": "address"
        },
        {
          "internalType": "uint256",
          "name": "amount",
          "type": "uint256"
        },
        {
          "internalType": "uint256",
          "name": "estimatedCost",
          "type": "uint256"
        },
        {
          "internalType": "string",
          "name": "originalLotId",
          "type": "string"
        }
      ],
      "name": "executeRebuy",
      "outputs": [
        {
          "internalType": "bytes32",
          "name": "requestId",
          "type": "bytes32"
        }
      ],
      "stateMutability": "nonpayable",
      "type": "function"
    },
    {
      "inputs": [
        {
          "internalType": "address",
          "name": "user",
          "type": "address"
        },
        {
          "internalType": "address",
          "name": "fromAsset",
          "type": "address"
        },
        {
          "internalType": "address",
          "name": "toAsset",
          "type": "address"
        },
        {
          "internalType": "uint256",
          "name": "amount",
          "type": "uint256"
        },
        {
          "internalType": "uint256",
          "name": "estimatedValue",
          "type": "uint256"
        }
      ],
      "name": "executeYieldMove",
      "outputs": [
        {
          "internalType": "bytes32",
          "name": "requestId",
          "type": "bytes32"
        }
      ],
      "stateMutability": "nonpayable",
      "type": "function"
    },
    {
      "inputs": [
        {
          "internalType": "bytes32",
          "name": "requestId",
          "type": "bytes32"
        }
      ],
      "name": "getPendingExecution",
      "outputs": [
        {
          "components": [
            {
              "internalType": "enum TaxeeTypes.ActionType",
              "name": "action",
              "type": "uint8"
            },
            {
              "internalType": "address",
              "name": "asset",
              "type": "address"
            },
            {
              "internalType": "uint256",
              "name": "amount",
              "type": "uint256"
            },
            {
              "internalType": "uint256",
              "name": "estimatedValue",
              "type": "uint256"
            },
            {
              "internalType": "bytes",
              "name": "data",
              "type": "bytes"
            },
            {
              "internalType": "uint256",
              "name": "nonce",
              "type": "uint256"
            },
            {
              "internalType": "uint256",
              "name": "deadline",
              "type": "uint256"
            }
          ],
          "internalType": "struct TaxeeTypes.TransactionPayload",
          "name": "",
          "type": "tuple"
        }
      ],
      "stateMutability": "view",
      "type": "function"
    },
    {
      "inputs": [
        {
          "internalType": "address",
          "name": "",
          "type": "address"
        }
      ],
      "name": "lastHarvestTime",
      "outputs": [
        {
          "internalType": "uint256",
          "name": "",
          "type": "uint256"
        }
      ],
      "stateMutability": "view",
      "type": "function"
    },
    {
      "inputs": [],
      "name": "owner",
      "outputs": [
        {
          "internalType": "address",
          "name": "",
          "type": "address"
        }
      ],
      "stateMutability": "view",
      "type": "function"
    },
    {
      "inputs": [
        {
          "internalType": "bytes32",
          "name": "",
          "type": "bytes32"
        }
      ],
      "name": "pendingExecutions",
      "outputs": [
        {
          "internalType": "enum TaxeeTypes.ActionType",
          "name": "action",
          "type": "uint8"
        },
        {
          "internalType": "address",
          "name": "asset",
          "type": "address"
        },
        {
          "internalType": "uint256",
          "name": "amount",
          "type": "uint256"
        },
        {
          "internalType": "uint256",
          "name": "estimatedValue",
          "type": "uint256"
        },
        {
          "internalType": "bytes",
          "name": "data",
          "type": "bytes"
        },
        {
          "internalType": "uint256",
          "name": "nonce",
          "type": "uint256"
        },
        {
          "internalType": "uint256",
          "name": "deadline",
          "type": "uint256"
        }
      ],
      "stateMutability": "view",
      "type": "function"
    },
    {
      "inputs": [],
      "name": "rebuyCooldown",
      "outputs": [
        {
          "internalType": "uint256",
          "name": "",
          "type": "uint256"
        }
      ],
      "stateMutability": "view",
      "type": "function"
    },
    {
      "inputs": [],
      "name": "requestNonce",
      "outputs": [
        {
          "internalType": "uint256",
          "name": "",
          "type": "uint256"
        }
      ],
      "stateMutability": "view",
      "type": "function"
    },
    {
      "inputs": [
        {
          "internalType": "address",
          "name": "asset",
          "type": "address"
        },
        {
          "internalType": "bool",
          "name": "allowed",
          "type": "bool"
        }
      ],
      "name": "setAllowedAsset",
      "outputs": [],
      "stateMutability": "nonpayable",
      "type": "function"
    },
    {
      "inputs": [
        {
          "internalType": "address",
          "name": "executor",
          "type": "address"
        },
        {
          "internalType": "bool",
          "name": "authorized",
          "type": "bool"
        }
      ],
      "name": "setAuthorizedExecutor",
      "outputs": [],
      "stateMutability": "nonpayable",
      "type": "function"
    },
    {
      "inputs": [
        {
          "internalType": "address",
          "name": "_relayer",
          "type": "address"
        }
      ],
      "name": "setCircleRelayer",
      "outputs": [],
      "stateMutability": "nonpayable",
      "type": "function"
    },
    {
      "inputs": [
        {
          "internalType": "uint256",
          "name": "cooldown",
          "type": "uint256"
        }
      ],
      "name": "setRebuyCooldown",
      "outputs": [],
      "stateMutability": "nonpayable",
      "type": "function"
    },
    {
      "inputs": [
        {
          "internalType": "uint256",
          "name": "tolerance",
          "type": "uint256"
        }
      ],
      "name": "setSlippageTolerance",
      "outputs": [],
      "stateMutability": "nonpayable",
      "type": "function"
    },
    {
      "inputs": [
        {
          "internalType": "address",
          "name": "_usyc",
          "type": "address"
        }
      ],
      "name": "setUsycToken",
      "outputs": [],
      "stateMutability": "nonpayable",
      "type": "function"
    },
    {
      "inputs": [
        {
          "internalType": "bytes32",
          "name": "requestId",
          "type": "bytes32"
        },
        {
          "internalType": "string",
          "name": "reason",
          "type": "string"
        }
      ],
      "name": "skipOpportunity",
      "outputs": [],
      "stateMutability": "nonpayable",
      "type": "function"
    },
    {
      "inputs": [],
      "name": "slippageTolerance",
      "outputs": [
        {
          "internalType": "uint256",
          "name": "",
          "type": "uint256"
        }
      ],
      "stateMutability": "view",
      "type": "function"
    },
    {
      "inputs": [],
      "name": "usycToken",
      "outputs": [
        {
          "internalType": "address",
          "name": "",
          "type": "address"
        }
      ],
      "stateMutability": "view",
      "type": "function"
    }
  ],
  "bytecode": "0x60a060405261012c600555606460065534801561001b57600080fd5b50604051620021dc380380620021dc83398101604081905261003c916100d8565b600180546001600160a01b031916331781556001600160a01b039190911660805260036020527f3617319a054d772f909f7c479a2cebe5066e836a939412e32403c99029b92eff805460ff19908116831790915573a0b86a33e6441e0a421e56e4773c3c4b0db7e5b56000527f43939be271c1e5861117b36bf722c301157760640a3b2fbcad6c3ed5f90a162280549091169091179055610108565b6000602082840312156100ea57600080fd5b81516001600160a01b038116811461010157600080fd5b9392505050565b608051612095620001476000396000818161018a01528181610650015281816109d001528181610da601528181611013015261113201526120956000f3fe608060405234801561001057600080fd5b50600436106101585760003560e01c80637cae716e116100c3578063a4c1cccb1161007c578063a4c1cccb1461033b578063b446a40d1461035e578063c8c3f36614610371578063ce3e1d9414610384578063d03153aa14610397578063d9a3aa3c146103a057600080fd5b80637cae716e146102b85780638769d304146102cb5780638da5cb5b146102eb578063919452bd146102fe578063937057861461031f5780639c9b8da71461033257600080fd5b80635b43279e116101155780635b43279e14610223578063679d86a7146102435780636e736e7c146102765780637324094b1461028957806375ebb9ef1461029c5780637c1a0302146102af57600080fd5b80630e2c01c21461015d578063117da1ee146101725780631fbdd72d146101855780632f2510de146101c957806332292564146101ea57806336f690ad14610210575b600080fd5b61017061016b3660046118ba565b6103b3565b005b6101706101803660046118ba565b6103eb565b6101ac7f000000000000000000000000000000000000000000000000000000000000000081565b6040516001600160a01b0390911681526020015b60405180910390f35b6101dc6101d7366004611931565b61045f565b6040519081526020016101c0565b6101fd6101f83660046118ba565b6106d9565b6040516101c09796959493929190611a2b565b6101dc61021e366004611931565b6107a8565b6101dc610231366004611a7b565b60076020526000908152604090205481565b610266610251366004611a7b565b60026020526000908152604090205460ff1681565b60405190151581526020016101c0565b610170610284366004611a7b565b610a0a565b610170610297366004611a9f565b610a56565b6101dc6102aa366004611aeb565b610b6d565b6101dc60095481565b6101706102c6366004611b54565b610e2e565b6102de6102d93660046118ba565b610e83565b6040516101c09190611b8d565b6001546101ac906001600160a01b031681565b61031161030c366004611c01565b610fec565b6040516101c0929190611c56565b6000546101ac906001600160a01b031681565b6101dc60055481565b610266610349366004611a7b565b60036020526000908152604090205460ff1681565b61017061036c366004611c79565b611281565b6004546101ac906001600160a01b031681565b610170610392366004611a7b565b611784565b6101dc60065481565b6101706103ae366004611b54565b6117d0565b6001546001600160a01b031633146103e65760405162461bcd60e51b81526004016103dd90611cba565b60405180910390fd5b600555565b6001546001600160a01b031633146104155760405162461bcd60e51b81526004016103dd90611cba565b6103e881111561045a5760405162461bcd60e51b815260206004820152601060248201526f4d61782031302520736c69707061676560801b60448201526064016103dd565b600655565b3360009081526002602052604081205460ff1661048e5760405162461bcd60e51b81526004016103dd90611cdd565b61049b8760008887611825565b60098054889142919060006104af83611d2a565b919050556040516020016104c593929190611d43565b60408051601f19818403018152828252805160209091012060e08301909152915060009080828152602001886001600160a01b03168152602001878152602001868152602001858560405160200161051e929190611d96565b60408051601f1981840301815291815290825260095460208301520161054642610258611daa565b90526000838152600860205260409020815181549293508392829060ff19166001836003811115610579576105796119ad565b0217905550602082015181546001600160a01b0390911661010002610100600160a81b03199091161781556040820151600182015560608201516002820155608082015160038201906105cc9082611e64565b5060a0820151600482015560c0909101516005909101556001600160a01b038816600081815260076020526040808220429055518492917f4f7be864201bf477e2165c2dbc00a9d7dca7c50154dc486a64f388d143aa9bf69161063191908a90611f24565b60405180910390a36040516305054be360e11b81526001600160a01b037f00000000000000000000000000000000000000000000000000000000000000001690630a0a97c69061068a908b908990600090600401611f3f565b6020604051808303816000875af11580156106a9573d6000803e3d6000fd5b505050506040513d601f19601f820116820180604052508101906106cd9190611f63565b50509695505050505050565b600860205260009081526040902080546001820154600283015460038401805460ff8516956101009095046001600160a01b031694919061071990611dd9565b80601f016020809104026020016040519081016040528092919081815260200182805461074590611dd9565b80156107925780601f1061076757610100808354040283529160200191610792565b820191906000526020600020905b81548152906001019060200180831161077557829003601f168201915b5050505050908060040154908060050154905087565b3360009081526002602052604081205460ff166107d75760405162461bcd60e51b81526004016103dd90611cdd565b6005546001600160a01b0388166000908152600760205260409020546107fd9190611daa565b42101561081d5760405163aa9a98df60e01b815260040160405180910390fd5b61082a8760028887611825565b600980548891429190600061083e83611d2a565b9190505560405160200161085493929190611d43565b60408051601f19818403018152828252805160209091012060e0830190915291506000908060028152602001886001600160a01b0316815260200187815260200186815260200185856040516020016108ae929190611d96565b60408051601f198184030181529181529082526009546020830152016108d642610258611daa565b90526000838152600860205260409020815181549293508392829060ff19166001836003811115610909576109096119ad565b0217905550602082015181546001600160a01b0390911661010002610100600160a81b031990911617815560408201516001820155606082015160028201556080820151600382019061095c9082611e64565b5060a0820151816004015560c0820151816005015590505081886001600160a01b03167f4f7be864201bf477e2165c2dbc00a9d7dca7c50154dc486a64f388d143aa9bf66002886040516109b1929190611f24565b60405180910390a36040516305054be360e11b81526001600160a01b037f00000000000000000000000000000000000000000000000000000000000000001690630a0a97c69061068a908b908990600290600401611f3f565b6001546001600160a01b03163314610a345760405162461bcd60e51b81526004016103dd90611cba565b600080546001600160a01b0319166001600160a01b0392909216919091179055565b3360009081526002602052604090205460ff16610a855760405162461bcd60e51b81526004016103dd90611cdd565b60008381526008602052604090206005810154610ad85760405162461bcd60e51b815260206004820152601160248201527014995c5d595cdd081b9bdd08199bdd5b99607a1b60448201526064016103dd565b600084815260086020526040812080546001600160a81b0319168155600181018290556002810182905590610b106003830182611864565b506000600482018190556005909101556040516001600160a01b038516907f7ff60cc2f85588fc5d587a427ef54d19807ea551e5a2afb3c9fa369f080ed33690610b5f90869086904290611f80565b60405180910390a250505050565b3360009081526002602052604081205460ff16610b9c5760405162461bcd60e51b81526004016103dd90611cdd565b6004546001600160a01b03868116911614801590610bc857506004546001600160a01b03858116911614155b15610be65760405163421c007d60e11b815260040160405180910390fd5b610bf38660018785611825565b6009805487914291906000610c0783611d2a565b91905055604051602001610c1d93929190611d43565b60408051601f19818403018152828252805160209091012060e0830190915291506000908060018152602001876001600160a01b0316815260200185815260200184815260200186604051602001610c8491906001600160a01b0391909116815260200190565b60408051601f19818403018152918152908252600954602083015201610cac42610258611daa565b90526000838152600860205260409020815181549293508392829060ff19166001836003811115610cdf57610cdf6119ad565b0217905550602082015181546001600160a01b0390911661010002610100600160a81b0319909116178155604082015160018201556060820151600282015560808201516003820190610d329082611e64565b5060a0820151816004015560c0820151816005015590505081876001600160a01b03167f4f7be864201bf477e2165c2dbc00a9d7dca7c50154dc486a64f388d143aa9bf6600186604051610d87929190611f24565b60405180910390a36040516305054be360e11b81526001600160a01b037f00000000000000000000000000000000000000000000000000000000000000001690630a0a97c690610de0908a908790600190600401611f3f565b6020604051808303816000875af1158015610dff573d6000803e3d6000fd5b505050506040513d601f19601f82011682018060405250810190610e239190611f63565b505095945050505050565b6001546001600160a01b03163314610e585760405162461bcd60e51b81526004016103dd90611cba565b6001600160a01b03919091166000908152600260205260409020805460ff1916911515919091179055565b610ecd6040805160e08101909152806000815260200160006001600160a01b0316815260200160008152602001600081526020016060815260200160008152602001600081525090565b60008281526008602052604090819020815160e081019092528054829060ff166003811115610efe57610efe6119ad565b6003811115610f0f57610f0f6119ad565b8152815461010090046001600160a01b031660208201526001820154604082015260028201546060820152600382018054608090920191610f4f90611dd9565b80601f0160208091040260200160405190810160405280929190818152602001828054610f7b90611dd9565b8015610fc85780601f10610f9d57610100808354040283529160200191610fc8565b820191906000526020600020905b815481529060010190602001808311610fab57829003601f168201915b50505050508152602001600482015481526020016005820154815250509050919050565b6040516318b1c13f60e11b81526001600160a01b03858116600483015260009160609183917f000000000000000000000000000000000000000000000000000000000000000090911690633163827e906024016040805180830381865afa15801561105b573d6000803e3d6000fd5b505050506040513d601f19601f8201168201806040525081019061107f9190611fa4565b509050806110bd57505060408051808201909152601481527327379030b1ba34bb32903232b632b3b0ba34b7b760611b602082015260009150611278565b6001600160a01b03851660009081526003602052604090205460ff16611110575050604080518082019091526011815270105cdcd95d081b9bdd08185b1b1bddd959607a1b602082015260009150611278565b604051633623d4cf60e11b81526001600160a01b0388811660048301526000917f000000000000000000000000000000000000000000000000000000000000000090911690636c47a99e906024016040805180830381865afa15801561117a573d6000803e3d6000fd5b505050506040513d601f19601f8201168201806040525081019061119e9190611fd2565b509050808511156111e457600060405180604001604052806015815260200174115e18d959591cc81b5bdb9d1a1b1e481b1a5b5a5d605a1b815250935093505050611278565b60028760038111156111f8576111f86119ad565b0361125f576005546001600160a01b0389166000908152600760205260409020546112239190611daa565b42101561125f5760006040518060400160405280600f81526020016e436f6f6c646f776e2061637469766560881b815250935093505050611278565b6001604051806020016040528060008152509350935050505b94509492505050565b6000546001600160a01b031633146112d05760405162461bcd60e51b81526020600482015260126024820152712737ba1031b4b931b632903932b630bcb2b960711b60448201526064016103dd565b600084815260086020526040902060058101546113235760405162461bcd60e51b815260206004820152601160248201527014995c5d595cdd081b9bdd08199bdd5b99607a1b60448201526064016103dd565b80600501544211156113695760405162461bcd60e51b815260206004820152600f60248201526e14995c5d595cdd08195e1c1a5c9959608a1b60448201526064016103dd565b6002810154600654600090612710906113829084611ff6565b61138c919061200d565b9050611398818361202f565b85101561146557600087815260086020526040812080546001600160a81b03191681556001810182905560028101829055906113d76003830182611864565b50600060048201819055600590910155604080518181526011818301527014db1a5c1c1859d948195e18d959591959607a1b606082015242602082015290516001600160a01b038916917f7ff60cc2f85588fc5d587a427ef54d19807ea551e5a2afb3c9fa369f080ed336919081900360800190a2604051638199f5f360e01b815260040160405180910390fd5b83156116ce576000835460ff166003811115611483576114836119ad565b036114f157825460018401546040805191825260208201889052600090820152606081018890526001600160a01b036101009092048216918916907fc4b62a840ad9c3920f6f88dce7733a778452b85d949b926b3e6c5ac42a0fe024906080015b60405180910390a3611683565b6002835460ff166003811115611509576115096119ad565b036115665782546001840154604080519182526020820188905281018890526001600160a01b036101009092048216918916907f486d737edd2b23682016f479846d1fdb1cca99fbfaefc3498cb941724c0535cc906060016114e4565b6001835460ff16600381111561157e5761157e6119ad565b0361168357600083600301805461159490611dd9565b80601f01602080910402602001604051908101604052809291908181526020018280546115c090611dd9565b801561160d5780601f106115e25761010080835404028352916020019161160d565b820191906000526020600020905b8154815290600101906020018083116115f057829003601f168201915b50505050508060200190518101906116259190612042565b8454600186015460408051918252602082018b90529293506001600160a01b0380851693610100909304811692908c16917f1b2163829a9b956bd65a75f7a1a40da0536793d05ead7bda02861446848c9ded910160405180910390a4505b604080518781526020810187905288916001600160a01b038316917f9609cbdd4fe48e1ef15d618f91bdeee037c56f3ca5df4afeef14374068244ad3910160405180910390a3611733565b604080518181526010818301526f115e1958dd5d1a5bdb8819985a5b195960821b606082015242602082015290516001600160a01b038916917f7ff60cc2f85588fc5d587a427ef54d19807ea551e5a2afb3c9fa369f080ed336919081900360800190a25b600087815260086020526040812080546001600160a81b031916815560018101829055600281018290559061176b6003830182611864565b5060006004820181905560059091015550505050505050565b6001546001600160a01b031633146117ae5760405162461bcd60e51b81526004016103dd90611cba565b600480546001600160a01b0319166001600160a01b0392909216919091179055565b6001546001600160a01b031633146117fa5760405162461bcd60e51b81526004016103dd90611cba565b6001600160a01b03919091166000908152600360205260409020805460ff1916911515919091179055565b6001600160a01b03821660009081526003602052604090205460ff1661185e57604051634847234360e01b815260040160405180910390fd5b50505050565b50805461187090611dd9565b6000825580601f10611880575050565b601f01602090049060005260206000209081019061189e91906118a1565b50565b5b808211156118b657600081556001016118a2565b5090565b6000602082840312156118cc57600080fd5b5035919050565b6001600160a01b038116811461189e57600080fd5b60008083601f8401126118fa57600080fd5b50813567ffffffffffffffff81111561191257600080fd5b60208301915083602082850101111561192a57600080fd5b9250929050565b60008060008060008060a0878903121561194a57600080fd5b8635611955816118d3565b95506020870135611965816118d3565b94506040870135935060608701359250608087013567ffffffffffffffff81111561198f57600080fd5b61199b89828a016118e8565b979a9699509497509295939492505050565b634e487b7160e01b600052602160045260246000fd5b600481106119e157634e487b7160e01b600052602160045260246000fd5b9052565b6000815180845260005b81811015611a0b576020818501810151868301820152016119ef565b506000602082860101526020601f19601f83011685010191505092915050565b611a3581896119c3565b60018060a01b038716602082015285604082015284606082015260e060808201526000611a6560e08301866119e5565b60a08301949094525060c0015295945050505050565b600060208284031215611a8d57600080fd5b8135611a98816118d3565b9392505050565b600080600060408486031215611ab457600080fd5b83359250602084013567ffffffffffffffff811115611ad257600080fd5b611ade868287016118e8565b9497909650939450505050565b600080600080600060a08688031215611b0357600080fd5b8535611b0e816118d3565b94506020860135611b1e816118d3565b93506040860135611b2e816118d3565b94979396509394606081013594506080013592915050565b801515811461189e57600080fd5b60008060408385031215611b6757600080fd5b8235611b72816118d3565b91506020830135611b8281611b46565b809150509250929050565b60208152611b9f6020820183516119c3565b60018060a01b03602083015116604082015260408201516060820152606082015160808201526000608083015160e060a0840152611be16101008401826119e5565b905060a084015160c084015260c084015160e08401528091505092915050565b60008060008060808587031215611c1757600080fd5b8435611c22816118d3565b9350602085013560048110611c3657600080fd5b92506040850135611c46816118d3565b9396929550929360600135925050565b8215158152604060208201526000611c7160408301846119e5565b949350505050565b60008060008060808587031215611c8f57600080fd5b8435935060208501359250604085013591506060850135611caf81611b46565b939692955090935050565b6020808252600990820152682737ba1037bbb732b960b91b604082015260600190565b60208082526017908201527f4e6f7420617574686f72697a6564206578656375746f72000000000000000000604082015260600190565b634e487b7160e01b600052601160045260246000fd5b600060018201611d3c57611d3c611d14565b5060010190565b60609390931b6bffffffffffffffffffffffff191683526014830191909152603482015260540190565b81835281816020850137506000828201602090810191909152601f909101601f19169091010190565b602081526000611c71602083018486611d6d565b80820180821115611dbd57611dbd611d14565b92915050565b634e487b7160e01b600052604160045260246000fd5b600181811c90821680611ded57607f821691505b602082108103611e0d57634e487b7160e01b600052602260045260246000fd5b50919050565b601f821115611e5f576000816000526020600020601f850160051c81016020861015611e3c5750805b601f850160051c820191505b81811015611e5b57828155600101611e48565b5050505b505050565b815167ffffffffffffffff811115611e7e57611e7e611dc3565b611e9281611e8c8454611dd9565b84611e13565b602080601f831160018114611ec75760008415611eaf5750858301515b600019600386901b1c1916600185901b178555611e5b565b600085815260208120601f198616915b82811015611ef657888601518255948401946001909101908401611ed7565b5085821015611f145787850151600019600388901b60f8161c191681555b5050505050600190811b01905550565b60408101611f3282856119c3565b8260208301529392505050565b6001600160a01b03841681526020810183905260608101611c7160408301846119c3565b600060208284031215611f7557600080fd5b8151611a9881611b46565b604081526000611f94604083018587611d6d565b9050826020830152949350505050565b60008060408385031215611fb757600080fd5b8251611fc281611b46565b6020939093015192949293505050565b60008060408385031215611fe557600080fd5b505080516020909101519092909150565b8082028115828204841417611dbd57611dbd611d14565b60008261202a57634e487b7160e01b600052601260045260246000fd5b500490565b81810381811115611dbd57611dbd611d14565b60006020828403121561205457600080fd5b8151611a98816118d356fea2646970667358221220962bba6f2d766956245a46bb036f6f8ef79b7cdf470b82d6210b14c97df6194e64736f6c63430008180033",
  "linkReferences": {},
  "deployedLinkReferences": {}
}