{
  "_format": "hh-sol-artifact-1",
  "contractName": "DelegationRegistry",
  "sourceName": "src/DelegationRegistry.sol",
  "abi": [
    {
      "inputs": [],
      "stateMutability": "nonpayable",
      "type": "constructor"
    },
    {
      "inputs": [],
      "name": "DelegationExpired",
      "type": "error"
    },
    {
      "inputs": [],
      "name": "DelegationNotFound",
      "type": "error"
    },
    {
      "inputs": [],
      "name": "InvalidSignature",
      "type": "error"
    },
    {
      "inputs": [],
      "name": "MonthlyLimitExceeded",
      "type": "error"
    },
    {
      "inputs": [
        {
          "internalType": "string",
          "name": "reason",
          "type": "string"
        }
      ],
      "name": "PolicyViolation",
      "type": "error"
    },
    {
      "inputs": [],
      "name": "UnauthorizedCaller",
      "type": "error"
    },
    {
      "inputs": [],
      "name": "ZeroAddress",
      "type": "error"
    },
    {
      "anonymous": false,
      "inputs": [
        {
          "indexed": true,
          "internalType": "address",
          "name": "user",
          "type": "address"
        },
        {
          "indexed": true,
          "internalType": "address",
          "name": "delegate",
          "type": "address"
        },
        {
          "indexed": true,
          "internalType": "bytes32",
          "name": "policyHash",
          "type": "bytes32"
        },
        {
          "indexed": false,
          "internalType": "uint256",
          "name": "expiration",
          "type": "uint256"
        }
      ],
      "name": "DelegationCreated",
      "type": "event"
    },
    {
      "anonymous": false,
      "inputs": [
        {
          "indexed": true,
          "internalType": "address",
          "name": "user",
          "type": "address"
        },
        {
          "indexed": true,
          "internalType": "address",
          "name": "delegate",
          "type": "address"
        },
        {
          "indexed": false,
          "internalType": "uint256",
          "name": "timestamp",
          "type": "uint256"
        }
      ],
      "name": "DelegationRevoked",
      "type": "event"
    },
    {
      "anonymous": false,
      "inputs": [
        {
          "indexed": true,
          "internalType": "address",
          "name": "user",
          "type": "address"
        },
        {
          "indexed": true,
          "internalType": "address",
          "name": "delegate",
          "type": "address"
        },
        {
          "indexed": false,
          "internalType": "uint256",
          "name": "value",
          "type": "uint256"
        },
        {
          "indexed": false,
          "internalType": "enum TaxeeTypes.ActionType",
          "name": "action",
          "type": "uint8"
        }
      ],
      "name": "DelegationUsed",
      "type": "event"
    },
    {
      "anonymous": false,
      "inputs": [
        {
          "indexed": true,
          "internalType": "address",
          "name": "user",
          "type": "address"
        },
        {
          "indexed": false,
          "internalType": "uint256",
          "name": "newRemaining",
          "type": "uint256"
        },
        {
          "indexed": false,
          "internalType": "uint256",
          "name": "monthStart",
          "type": "uint256"
        }
      ],
      "name": "MonthlyLimitUpdated",
      "type": "event"
    },
    {
      "inputs": [],
      "name": "DOMAIN_SEPARATOR",
      "outputs": [
        {
          "internalType": "bytes32",
          "name": "",
          "type": "bytes32"
        }
      ],
      "stateMutability": "view",
      "type": "function"
    },
    {
      "inputs": [
        {
          "components": [
            {
              "internalType": "address",
              "name": "delegate",
              "type": "address"
            },
            {
              "internalType": "bytes32",
              "name": "policyHash",
              "type": "bytes32"
            },
            {
              "internalType": "uint256",
              "name": "expiration",
              "type": "uint256"
            },
            {
              "internalType": "uint256",
              "name": "maxPerTx",
              "type": "uint256"
            },
            {
              "internalType": "uint256",
              "name": "maxPerMonth",
              "type": "uint256"
            },
            {
              "internalType": "bool",
              "name": "isActive",
              "type": "bool"
            },
            {
              "internalType": "uint256",
              "name": "createdAt",
              "type": "uint256"
            },
            {
              "internalType": "bytes",
              "name": "signature",
              "type": "bytes"
            }
          ],
          "internalType": "struct TaxeeTypes.Delegation",
          "name": "delegation",
          "type": "tuple"
        }
      ],
      "name": "createDelegation",
      "outputs": [],
      "stateMutability": "nonpayable",
      "type": "function"
    },
    {
      "inputs": [
        {
          "internalType": "address",
          "name": "user",
          "type": "address"
        },
        {
          "components": [
            {
              "internalType": "address",
              "name": "delegate",
              "type": "address"
            },
            {
              "internalType": "bytes32",
              "name": "policyHash",
              "type": "bytes32"
            },
            {
              "internalType": "uint256",
              "name": "expiration",
              "type": "uint256"
            },
            {
              "internalType": "uint256",
              "name": "maxPerTx",
              "type": "uint256"
            },
            {
              "internalType": "uint256",
              "name": "maxPerMonth",
              "type": "uint256"
            },
            {
              "internalType": "bool",
              "name": "isActive",
              "type": "bool"
            },
            {
              "internalType": "uint256",
              "name": "createdAt",
              "type": "uint256"
            },
            {
              "internalType": "bytes",
              "name": "signature",
              "type": "bytes"
            }
          ],
          "internalType": "struct TaxeeTypes.Delegation",
          "name": "delegation",
          "type": "tuple"
        },
        {
          "internalType": "bytes",
          "name": "signature",
          "type": "bytes"
        }
      ],
      "name": "createDelegationWithSignature",
      "outputs": [],
      "stateMutability": "nonpayable",
      "type": "function"
    },
    {
      "inputs": [
        {
          "internalType": "address",
          "name": "",
          "type": "address"
        }
      ],
      "name": "currentMonthStart",
      "outputs": [
        {
          "internalType": "uint256",
          "name": "",
          "type": "uint256"
        }
      ],
      "stateMutability": "view",
      "type": "function"
    },
    {
      "inputs": [
        {
          "internalType": "address",
          "name": "",
          "type": "address"
        }
      ],
      "name": "delegations",
      "outputs": [
        {
          "internalType": "address",
          "name": "delegate",
          "type": "address"
        },
        {
          "internalType": "bytes32",
          "name": "policyHash",
          "type": "bytes32"
        },
        {
          "internalType": "uint256",
          "name": "expiration",
          "type": "uint256"
        },
        {
          "internalType": "uint256",
          "name": "maxPerTx",
          "type": "uint256"
        },
        {
          "internalType": "uint256",
          "name": "maxPerMonth",
          "type": "uint256"
        },
        {
          "internalType": "bool",
          "name": "isActive",
          "type": "bool"
        },
        {
          "internalType": "uint256",
          "name": "createdAt",
          "type": "uint256"
        },
        {
          "internalType": "bytes",
          "name": "signature",
          "type": "bytes"
        }
      ],
      "stateMutability": "view",
      "type": "function"
    },
    {
      "inputs": [
        {
          "internalType": "address",
          "name": "user",
          "type": "address"
        }
      ],
      "name": "getRemainingMonthlyLimit",
      "outputs": [
        {
          "internalType": "uint256",
          "name": "remaining",
          "type": "uint256"
        },
        {
          "internalType": "uint256",
          "name": "monthStart",
          "type": "uint256"
        }
      ],
      "stateMutability": "view",
      "type": "function"
    },
    {
      "inputs": [
        {
          "internalType": "address",
          "name": "user",
          "type": "address"
        }
      ],
      "name": "hasActiveDelegation",
      "outputs": [
        {
          "internalType": "bool",
          "name": "hasDelegation",
          "type": "bool"
        },
        {
          "internalType": "uint256",
          "name": "expiration",
          "type": "uint256"
        }
      ],
      "stateMutability": "view",
      "type": "function"
    },
    {
      "inputs": [
        {
          "internalType": "address",
          "name": "",
          "type": "address"
        },
        {
          "internalType": "uint256",
          "name": "",
          "type": "uint256"
        }
      ],
      "name": "monthlyUsage",
      "outputs": [
        {
          "internalType": "uint256",
          "name": "",
          "type": "uint256"
        }
      ],
      "stateMutability": "view",
      "type": "function"
    },
    {
      "inputs": [
        {
          "internalType": "address",
          "name": "",
          "type": "address"
        }
      ],
      "name": "nonces",
      "outputs": [
        {
          "internalType": "uint256",
          "name": "",
          "type": "uint256"
        }
      ],
      "stateMutability": "view",
      "type": "function"
    },
    {
      "inputs": [],
      "name": "owner",
      "outputs": [
        {
          "internalType": "address",
          "name": "",
          "type": "address"
        }
      ],
      "stateMutability": "view",
      "type": "function"
    },
    {
      "inputs": [],
      "name": "revokeDelegation",
      "outputs": [],
      "stateMutability": "nonpayable",
      "type": "function"
    },
    {
      "inputs": [
        {
          "internalType": "address",
          "name": "_taxeeManager",
          "type": "address"
        }
      ],
      "name": "setTaxeeManager",
      "outputs": [],
      "stateMutability": "nonpayable",
      "type": "function"
    },
    {
      "inputs": [],
      "name": "taxeeManager",
      "outputs": [
        {
          "internalType": "address",
          "name": "",
          "type": "address"
        }
      ],
      "stateMutability": "view",
      "type": "function"
    },
    {
      "inputs": [
        {
          "internalType": "address",
          "name": "user",
          "type": "address"
        },
        {
          "internalType": "uint256",
          "name": "value",
          "type": "uint256"
        },
        {
          "internalType": "enum TaxeeTypes.ActionType",
          "name": "action",
          "type": "uint8"
        }
      ],
      "name": "validateAndRecordUsage",
      "outputs": [
        {
          "internalType": "bool",
          "name": "valid",
          "type": "bool"
        }
      ],
      "stateMutability": "nonpayable",
      "type": "function"
    }
  ],
  "bytecode": "0x60a060405234801561001057600080fd5b50600480546001600160a01b031916331790556040805180820182526005815264546178656560d81b6020918201528151808301835260018152603160f81b9082015281517f8b73c3c69bb8fe3d512ecc4cf759cc79239f7b179b0ffacaa9a75d522b39400f918101919091527fa56fd3fd010f6403025de54c5caf6b6244b238603d475c02bffc9020df00f714918101919091527fc89efdaa54c0f20c7adf612882df0950f5a951637e0307cdcb4c672f298b8bc660608201524660808201523060a082015260c00160408051601f19818403018152919052805160209091012060805260805161125761011760003960008181610174015261052901526112576000f3fe608060405234801561001057600080fd5b50600436106100ea5760003560e01c80637ecebe001161008c578063a4d3180511610066578063a4d318051461025c578063a75742b714610264578063bffe348614610277578063e175b4521461029e57600080fd5b80637ecebe00146101fe5780638da5cb5b1461021e5780639fef96561461024957600080fd5b80633644e515116100c85780633644e5151461016f5780633a54bc77146101965780636c47a99e146101ab5780636fe36824146101d357600080fd5b80630a0a97c6146100ef57806326f0e02c146101175780633163827e14610145575b600080fd5b6101026100fd366004610dbc565b6102b1565b60405190151581526020015b60405180910390f35b610137610125366004610e00565b60026020526000908152604090205481565b60405190815260200161010e565b610158610153366004610e00565b61040d565b60408051921515835260208301919091520161010e565b6101377f000000000000000000000000000000000000000000000000000000000000000081565b6101a96101a4366004610e3b565b61044f565b005b6101be6101b9366004610e00565b6105fd565b6040805192835260208301919091520161010e565b6101376101e1366004610edd565b600160209081526000928352604080842090915290825290205481565b61013761020c366004610e00565b60056020526000908152604090205481565b600454610231906001600160a01b031681565b6040516001600160a01b03909116815260200161010e565b6101a9610257366004610f07565b61068e565b6101a961069b565b6101a9610272366004610e00565b610723565b61028a610285366004610e00565b610797565b60405161010e989796959493929190610f44565b600354610231906001600160a01b031681565b6003546000906001600160a01b031633146102df57604051635c427cd960e01b815260040160405180910390fd5b6001600160a01b0384166000908152602081905260409020600581015460ff1661031c57604051631dc8319b60e01b815260040160405180910390fd5b806002015442111561034e5760058101805460ff19169055604080516330d3ba0760e01b815290519081900360040190fd5b80600301548411156103a857604051631a63e46960e21b815260206004820152601d60248201527f45786365656473207065722d7472616e73616374696f6e206c696d697400000060448201526064015b60405180910390fd5b6103b785858360040154610874565b80546040516001600160a01b03918216918716907f984077676ff830cc4ba1efa2826fb12fe83ccfbd6d112ea647f4827f71ed76e1906103fa9088908890610fd8565b60405180910390a3506001949350505050565b6001600160a01b0381166000908152602081905260408120600581015482919060ff168015610440575080600201544211155b92508060020154915050915091565b60007fdddc2e42ccfde0703c83483190e3c69ad5b0e465f102323822fbb9bbaa9cd1ed61047f6020860186610e00565b6001600160a01b03871660009081526005602090815260408083208054928a013593918a01359260608b01359260808c013592906104bc83611020565b909155506040805160208101989098526001600160a01b03909616958701959095526060860193909352608085019190915260a084015260c083015260e08201526101000160408051601f1981840301815290829052805160209182012061190160f01b918301919091527f0000000000000000000000000000000000000000000000000000000000000000602283015260428201819052915060009060620160405160208183030381529060405280519060200120905060006105b68286868080601f0160208091040260200160405190810160405280939291908181526020018383808284376000920191909152506109a892505050565b9050866001600160a01b0316816001600160a01b0316146105ea57604051638baa579f60e01b815260040160405180910390fd5b6105f48787610a8d565b50505050505050565b6001600160a01b03811660009081526020818152604080832060029092528220549061062c8262278d00611039565b421061063e5780600401549250610688565b6001600160a01b038416600090815260016020908152604080832085845290915290205460048201548110610674576000610684565b808260040154610684919061104c565b9350505b50915091565b6106983382610a8d565b50565b336000818152602081905260409020600581015460ff166106cf57604051631dc8319b60e01b815260040160405180910390fd5b60058101805460ff1916905580546040514281526001600160a01b03918216918416907f8804646c776ee4e91100fb6859354b09a479e5b7fceaa9c7c7364e7d63a1bc819060200160405180910390a35050565b6004546001600160a01b0316331461074e57604051635c427cd960e01b815260040160405180910390fd5b6001600160a01b0381166107755760405163d92e233d60e01b815260040160405180910390fd5b600380546001600160a01b0319166001600160a01b0392909216919091179055565b600060208190529081526040902080546001820154600283015460038401546004850154600586015460068701546007880180546001600160a01b0390981698969795969495939460ff909316939192916107f19061105f565b80601f016020809104026020016040519081016040528092919081815260200182805461081d9061105f565b801561086a5780601f1061083f5761010080835404028352916020019161086a565b820191906000526020600020905b81548152906001019060200180831161084d57829003601f168201915b5050505050905088565b6001600160a01b03831660009081526002602052604090205461089a8162278d00611039565b42106108d557506001600160a01b03831660009081526002602090815260408083204290819055600183528184208185529092528220919091555b6001600160a01b0384166000908152600160209081526040808320848452909152902054826109048583611039565b111561092357604051633398515360e01b815260040160405180910390fd5b61092d8482611039565b6001600160a01b03861660008181526001602090815260408083208784529091529020919091557fafe0e4fef9b3be128843be281c9c2e72b033c3b690d7f3aa914b910238ae111285610980848761104c565b61098a919061104c565b60408051918252602082018690520160405180910390a25050505050565b600081516041146109fb5760405162461bcd60e51b815260206004820152601860248201527f496e76616c6964207369676e6174757265206c656e6774680000000000000000604482015260640161039f565b60208201516040830151606084015160001a601b811015610a2457610a21601b82611093565b90505b60408051600081526020810180835288905260ff831691810191909152606081018490526080810183905260019060a0016020604051602081039080840390855afa158015610a77573d6000803e3d6000fd5b5050506020604051035193505050505b92915050565b6000610a9c6020830183610e00565b6001600160a01b031603610ac35760405163d92e233d60e01b815260040160405180910390fd5b42816040013511610b1757604051631a63e46960e21b815260206004820152601c60248201527f45787069726174696f6e206d75737420626520696e2066757475726500000000604482015260640161039f565b60608101351580610b2a57506080810135155b15610b7857604051631a63e46960e21b815260206004820181905260248201527f4c696d697473206d7573742062652067726561746572207468616e207a65726f604482015260640161039f565b806080013581606001351115610beb57604051631a63e46960e21b815260206004820152603160248201527f5065722d7472616e73616374696f6e206c696d69742063616e6e6f7420657863604482015270195959081b5bdb9d1a1b1e481b1a5b5a5d607a1b606482015260840161039f565b60408051610100810190915280610c056020840184610e00565b6001600160a01b0316815260200182602001358152602001826040013581526020018260600135815260200182608001358152602001600115158152602001428152602001828060e00190610c5a91906110ac565b8080601f01602080910402602001604051908101604052809392919081815260200183838082843760009201829052509390945250506001600160a01b0385811682526020828152604092839020855181546001600160a01b03191693169290921782558401516001820155908301516002820155606083015160038201556080830151600482015560a083015160058201805460ff191691151591909117905560c0830151600682015560e08301519091506007820190610d1c9082611161565b5050506001600160a01b03821660009081526002602090815260409091204290558101803590610d4c9083610e00565b6001600160a01b0316836001600160a01b03167fb94ca423709a351f789a9c764a370660ed8c52e6e0607aeb0a7a0169518500c38460400135604051610d9491815260200190565b60405180910390a45050565b80356001600160a01b0381168114610db757600080fd5b919050565b600080600060608486031215610dd157600080fd5b610dda84610da0565b925060208401359150604084013560048110610df557600080fd5b809150509250925092565b600060208284031215610e1257600080fd5b610e1b82610da0565b9392505050565b60006101008284031215610e3557600080fd5b50919050565b60008060008060608587031215610e5157600080fd5b610e5a85610da0565b9350602085013567ffffffffffffffff80821115610e7757600080fd5b610e8388838901610e22565b94506040870135915080821115610e9957600080fd5b818701915087601f830112610ead57600080fd5b813581811115610ebc57600080fd5b886020828501011115610ece57600080fd5b95989497505060200194505050565b60008060408385031215610ef057600080fd5b610ef983610da0565b946020939093013593505050565b600060208284031215610f1957600080fd5b813567ffffffffffffffff811115610f3057600080fd5b610f3c84828501610e22565b949350505050565b600061010060018060a01b038b16835260208a602085015289604085015288606085015287608085015286151560a08501528560c08501528160e085015284518083860152600092505b80831015610fad57858301820151858401610120015291810191610f8e565b6101209250600083828701015282601f19601f83011686010193505050509998505050505050505050565b8281526040810160048310610ffd57634e487b7160e01b600052602160045260246000fd5b8260208301529392505050565b634e487b7160e01b600052601160045260246000fd5b6000600182016110325761103261100a565b5060010190565b80820180821115610a8757610a8761100a565b81810381811115610a8757610a8761100a565b600181811c9082168061107357607f821691505b602082108103610e3557634e487b7160e01b600052602260045260246000fd5b60ff8181168382160190811115610a8757610a8761100a565b6000808335601e198436030181126110c357600080fd5b83018035915067ffffffffffffffff8211156110de57600080fd5b6020019150368190038213156110f357600080fd5b9250929050565b634e487b7160e01b600052604160045260246000fd5b601f82111561115c576000816000526020600020601f850160051c810160208610156111395750805b601f850160051c820191505b8181101561115857828155600101611145565b5050505b505050565b815167ffffffffffffffff81111561117b5761117b6110fa565b61118f81611189845461105f565b84611110565b602080601f8311600181146111c457600084156111ac5750858301515b600019600386901b1c1916600185901b178555611158565b600085815260208120601f198616915b828110156111f3578886015182559484019460019091019084016111d4565b50858210156112115787850151600019600388901b60f8161c191681555b5050505050600190811b0190555056fea2646970667358221220262db5d96da26e4846f740cd60c8c3ae12898e05c43c6b5925499ba035597cdb64736f6c63430008180033",
  "linkReferences": {},
  "deployedLinkReferences": {}
}